{
  "_format": "hh-sol-artifact-1",
  "contractName": "NFTEpicGame",
  "sourceName": "contracts/NFTEpicGame.sol",
  "abi": [
    {
      "inputs": [
        {
          "internalType": "string[]",
          "name": "characterName",
          "type": "string[]"
        },
        {
          "internalType": "string[]",
          "name": "characterImageURI",
          "type": "string[]"
        },
        {
          "internalType": "uint256[]",
          "name": "characterMaxHp",
          "type": "uint256[]"
        },
        {
          "internalType": "uint256[][]",
          "name": "characterAttacks",
          "type": "uint256[][]"
        },
        {
          "internalType": "string",
          "name": "bossName",
          "type": "string"
        },
        {
          "internalType": "string",
          "name": "bossImageURI",
          "type": "string"
        },
        {
          "internalType": "uint256",
          "name": "bossHp",
          "type": "uint256"
        },
        {
          "internalType": "uint256",
          "name": "bossAttackDamage",
          "type": "uint256"
        },
        {
          "internalType": "address",
          "name": "epicTokenAddress",
          "type": "address"
        }
      ],
      "stateMutability": "nonpayable",
      "type": "constructor"
    },
    {
      "anonymous": false,
      "inputs": [
        {
          "indexed": true,
          "internalType": "address",
          "name": "owner",
          "type": "address"
        },
        {
          "indexed": true,
          "internalType": "address",
          "name": "approved",
          "type": "address"
        },
        {
          "indexed": true,
          "internalType": "uint256",
          "name": "tokenId",
          "type": "uint256"
        }
      ],
      "name": "Approval",
      "type": "event"
    },
    {
      "anonymous": false,
      "inputs": [
        {
          "indexed": true,
          "internalType": "address",
          "name": "owner",
          "type": "address"
        },
        {
          "indexed": true,
          "internalType": "address",
          "name": "operator",
          "type": "address"
        },
        {
          "indexed": false,
          "internalType": "bool",
          "name": "approved",
          "type": "bool"
        }
      ],
      "name": "ApprovalForAll",
      "type": "event"
    },
    {
      "anonymous": false,
      "inputs": [
        {
          "indexed": false,
          "internalType": "uint256",
          "name": "newBossHp",
          "type": "uint256"
        },
        {
          "indexed": false,
          "internalType": "uint256",
          "name": "newPlayerHp",
          "type": "uint256"
        }
      ],
      "name": "AttackComplete",
      "type": "event"
    },
    {
      "anonymous": false,
      "inputs": [
        {
          "indexed": false,
          "internalType": "address",
          "name": "sender",
          "type": "address"
        },
        {
          "indexed": false,
          "internalType": "uint256",
          "name": "tokenId",
          "type": "uint256"
        },
        {
          "indexed": false,
          "internalType": "uint256",
          "name": "characterIndex",
          "type": "uint256"
        }
      ],
      "name": "CharacterNFTMinted",
      "type": "event"
    },
    {
      "anonymous": false,
      "inputs": [
        {
          "indexed": true,
          "internalType": "address",
          "name": "previousOwner",
          "type": "address"
        },
        {
          "indexed": true,
          "internalType": "address",
          "name": "newOwner",
          "type": "address"
        }
      ],
      "name": "OwnershipTransferred",
      "type": "event"
    },
    {
      "anonymous": false,
      "inputs": [
        {
          "indexed": false,
          "internalType": "uint256",
          "name": "newHp",
          "type": "uint256"
        }
      ],
      "name": "RegenCompleted",
      "type": "event"
    },
    {
      "anonymous": false,
      "inputs": [
        {
          "indexed": true,
          "internalType": "address",
          "name": "from",
          "type": "address"
        },
        {
          "indexed": true,
          "internalType": "address",
          "name": "to",
          "type": "address"
        },
        {
          "indexed": true,
          "internalType": "uint256",
          "name": "tokenId",
          "type": "uint256"
        }
      ],
      "name": "Transfer",
      "type": "event"
    },
    {
      "inputs": [
        {
          "internalType": "string[]",
          "name": "attackNames",
          "type": "string[]"
        },
        {
          "internalType": "string[]",
          "name": "attackImages",
          "type": "string[]"
        },
        {
          "internalType": "uint256[]",
          "name": "attackDamages",
          "type": "uint256[]"
        },
        {
          "internalType": "uint256[]",
          "name": "attackIndexes",
          "type": "uint256[]"
        }
      ],
      "name": "addAttacks",
      "outputs": [],
      "stateMutability": "nonpayable",
      "type": "function"
    },
    {
      "inputs": [
        {
          "internalType": "string[]",
          "name": "specialAttackNames",
          "type": "string[]"
        },
        {
          "internalType": "string[]",
          "name": "specialAttackImages",
          "type": "string[]"
        },
        {
          "internalType": "uint256[]",
          "name": "specialAttackDamages",
          "type": "uint256[]"
        },
        {
          "internalType": "uint256[]",
          "name": "specialAttackPrices",
          "type": "uint256[]"
        },
        {
          "internalType": "uint256[]",
          "name": "specialAttackIndexes",
          "type": "uint256[]"
        }
      ],
      "name": "addSpecialAttacks",
      "outputs": [],
      "stateMutability": "nonpayable",
      "type": "function"
    },
    {
      "inputs": [
        {
          "internalType": "address",
          "name": "to",
          "type": "address"
        },
        {
          "internalType": "uint256",
          "name": "tokenId",
          "type": "uint256"
        }
      ],
      "name": "approve",
      "outputs": [],
      "stateMutability": "nonpayable",
      "type": "function"
    },
    {
      "inputs": [
        {
          "internalType": "uint256",
          "name": "attackIndex",
          "type": "uint256"
        }
      ],
      "name": "attackBoss",
      "outputs": [],
      "stateMutability": "nonpayable",
      "type": "function"
    },
    {
      "inputs": [
        {
          "internalType": "uint256",
          "name": "attackIndex",
          "type": "uint256"
        }
      ],
      "name": "attackSpecialBoss",
      "outputs": [],
      "stateMutability": "nonpayable",
      "type": "function"
    },
    {
      "inputs": [
        {
          "internalType": "address",
          "name": "owner",
          "type": "address"
        }
      ],
      "name": "balanceOf",
      "outputs": [
        {
          "internalType": "uint256",
          "name": "",
          "type": "uint256"
        }
      ],
      "stateMutability": "view",
      "type": "function"
    },
    {
      "inputs": [],
      "name": "bigBoss",
      "outputs": [
        {
          "internalType": "string",
          "name": "name",
          "type": "string"
        },
        {
          "internalType": "string",
          "name": "imageURI",
          "type": "string"
        },
        {
          "internalType": "uint256",
          "name": "hp",
          "type": "uint256"
        },
        {
          "internalType": "uint256",
          "name": "maxHp",
          "type": "uint256"
        },
        {
          "internalType": "uint256",
          "name": "attackDamage",
          "type": "uint256"
        }
      ],
      "stateMutability": "view",
      "type": "function"
    },
    {
      "inputs": [
        {
          "internalType": "uint256",
          "name": "specialAttackIndex",
          "type": "uint256"
        }
      ],
      "name": "buySpecialAttack",
      "outputs": [],
      "stateMutability": "payable",
      "type": "function"
    },
    {
      "inputs": [],
      "name": "checkIfUserHasNFT",
      "outputs": [
        {
          "components": [
            {
              "internalType": "uint256",
              "name": "characterIndex",
              "type": "uint256"
            },
            {
              "internalType": "string",
              "name": "name",
              "type": "string"
            },
            {
              "internalType": "string",
              "name": "imageURI",
              "type": "string"
            },
            {
              "internalType": "uint256",
              "name": "hp",
              "type": "uint256"
            },
            {
              "internalType": "uint256",
              "name": "maxHp",
              "type": "uint256"
            },
            {
              "internalType": "uint256[]",
              "name": "attacks",
              "type": "uint256[]"
            },
            {
              "internalType": "uint256[]",
              "name": "specialAttacks",
              "type": "uint256[]"
            },
            {
              "internalType": "uint256",
              "name": "lastRegenTime",
              "type": "uint256"
            }
          ],
          "internalType": "struct NFTEpicGame.CharacterAttributes",
          "name": "",
          "type": "tuple"
        }
      ],
      "stateMutability": "view",
      "type": "function"
    },
    {
      "inputs": [],
      "name": "claimHealth",
      "outputs": [],
      "stateMutability": "nonpayable",
      "type": "function"
    },
    {
      "inputs": [],
      "name": "getAllAttacks",
      "outputs": [
        {
          "components": [
            {
              "internalType": "uint256",
              "name": "attackIndex",
              "type": "uint256"
            },
            {
              "internalType": "string",
              "name": "attackName",
              "type": "string"
            },
            {
              "internalType": "uint256",
              "name": "attackDamage",
              "type": "uint256"
            },
            {
              "internalType": "string",
              "name": "attackImage",
              "type": "string"
            }
          ],
          "internalType": "struct NFTEpicGame.AttackType[]",
          "name": "",
          "type": "tuple[]"
        }
      ],
      "stateMutability": "view",
      "type": "function"
    },
    {
      "inputs": [],
      "name": "getAllDefaultCharacters",
      "outputs": [
        {
          "components": [
            {
              "internalType": "uint256",
              "name": "characterIndex",
              "type": "uint256"
            },
            {
              "internalType": "string",
              "name": "name",
              "type": "string"
            },
            {
              "internalType": "string",
              "name": "imageURI",
              "type": "string"
            },
            {
              "internalType": "uint256",
              "name": "hp",
              "type": "uint256"
            },
            {
              "internalType": "uint256",
              "name": "maxHp",
              "type": "uint256"
            },
            {
              "internalType": "uint256[]",
              "name": "attacks",
              "type": "uint256[]"
            },
            {
              "internalType": "uint256[]",
              "name": "specialAttacks",
              "type": "uint256[]"
            },
            {
              "internalType": "uint256",
              "name": "lastRegenTime",
              "type": "uint256"
            }
          ],
          "internalType": "struct NFTEpicGame.CharacterAttributes[]",
          "name": "",
          "type": "tuple[]"
        }
      ],
      "stateMutability": "view",
      "type": "function"
    },
    {
      "inputs": [],
      "name": "getAllSpecialAttacks",
      "outputs": [
        {
          "components": [
            {
              "internalType": "uint256",
              "name": "price",
              "type": "uint256"
            },
            {
              "internalType": "uint256",
              "name": "specialAttackIndex",
              "type": "uint256"
            },
            {
              "internalType": "string",
              "name": "specialAttackName",
              "type": "string"
            },
            {
              "internalType": "uint256",
              "name": "specialAttackDamage",
              "type": "uint256"
            },
            {
              "internalType": "string",
              "name": "specialAttackImage",
              "type": "string"
            }
          ],
          "internalType": "struct NFTEpicGame.SpecialAttackType[]",
          "name": "",
          "type": "tuple[]"
        }
      ],
      "stateMutability": "view",
      "type": "function"
    },
    {
      "inputs": [
        {
          "internalType": "uint256",
          "name": "tokenId",
          "type": "uint256"
        }
      ],
      "name": "getApproved",
      "outputs": [
        {
          "internalType": "address",
          "name": "",
          "type": "address"
        }
      ],
      "stateMutability": "view",
      "type": "function"
    },
    {
      "inputs": [],
      "name": "getBigBoss",
      "outputs": [
        {
          "components": [
            {
              "internalType": "string",
              "name": "name",
              "type": "string"
            },
            {
              "internalType": "string",
              "name": "imageURI",
              "type": "string"
            },
            {
              "internalType": "uint256",
              "name": "hp",
              "type": "uint256"
            },
            {
              "internalType": "uint256",
              "name": "maxHp",
              "type": "uint256"
            },
            {
              "internalType": "uint256",
              "name": "attackDamage",
              "type": "uint256"
            }
          ],
          "internalType": "struct NFTEpicGame.BigBoss",
          "name": "",
          "type": "tuple"
        }
      ],
      "stateMutability": "view",
      "type": "function"
    },
    {
      "inputs": [
        {
          "internalType": "address",
          "name": "owner",
          "type": "address"
        },
        {
          "internalType": "address",
          "name": "operator",
          "type": "address"
        }
      ],
      "name": "isApprovedForAll",
      "outputs": [
        {
          "internalType": "bool",
          "name": "",
          "type": "bool"
        }
      ],
      "stateMutability": "view",
      "type": "function"
    },
    {
      "inputs": [
        {
          "internalType": "uint256",
          "name": "_characterIndex",
          "type": "uint256"
        }
      ],
      "name": "mintCharacterNFT",
      "outputs": [],
      "stateMutability": "payable",
      "type": "function"
    },
    {
      "inputs": [],
      "name": "name",
      "outputs": [
        {
          "internalType": "string",
          "name": "",
          "type": "string"
        }
      ],
      "stateMutability": "view",
      "type": "function"
    },
    {
      "inputs": [
        {
          "internalType": "uint256",
          "name": "",
          "type": "uint256"
        }
      ],
      "name": "nftHolderAttributes",
      "outputs": [
        {
          "internalType": "uint256",
          "name": "characterIndex",
          "type": "uint256"
        },
        {
          "internalType": "string",
          "name": "name",
          "type": "string"
        },
        {
          "internalType": "string",
          "name": "imageURI",
          "type": "string"
        },
        {
          "internalType": "uint256",
          "name": "hp",
          "type": "uint256"
        },
        {
          "internalType": "uint256",
          "name": "maxHp",
          "type": "uint256"
        },
        {
          "internalType": "uint256",
          "name": "lastRegenTime",
          "type": "uint256"
        }
      ],
      "stateMutability": "view",
      "type": "function"
    },
    {
      "inputs": [
        {
          "internalType": "address",
          "name": "",
          "type": "address"
        }
      ],
      "name": "nftHolders",
      "outputs": [
        {
          "internalType": "uint256",
          "name": "",
          "type": "uint256"
        }
      ],
      "stateMutability": "view",
      "type": "function"
    },
    {
      "inputs": [],
      "name": "owner",
      "outputs": [
        {
          "internalType": "address",
          "name": "",
          "type": "address"
        }
      ],
      "stateMutability": "view",
      "type": "function"
    },
    {
      "inputs": [
        {
          "internalType": "uint256",
          "name": "tokenId",
          "type": "uint256"
        }
      ],
      "name": "ownerOf",
      "outputs": [
        {
          "internalType": "address",
          "name": "",
          "type": "address"
        }
      ],
      "stateMutability": "view",
      "type": "function"
    },
    {
      "inputs": [],
      "name": "renounceOwnership",
      "outputs": [],
      "stateMutability": "nonpayable",
      "type": "function"
    },
    {
      "inputs": [
        {
          "internalType": "address",
          "name": "from",
          "type": "address"
        },
        {
          "internalType": "address",
          "name": "to",
          "type": "address"
        },
        {
          "internalType": "uint256",
          "name": "tokenId",
          "type": "uint256"
        }
      ],
      "name": "safeTransferFrom",
      "outputs": [],
      "stateMutability": "nonpayable",
      "type": "function"
    },
    {
      "inputs": [
        {
          "internalType": "address",
          "name": "from",
          "type": "address"
        },
        {
          "internalType": "address",
          "name": "to",
          "type": "address"
        },
        {
          "internalType": "uint256",
          "name": "tokenId",
          "type": "uint256"
        },
        {
          "internalType": "bytes",
          "name": "_data",
          "type": "bytes"
        }
      ],
      "name": "safeTransferFrom",
      "outputs": [],
      "stateMutability": "nonpayable",
      "type": "function"
    },
    {
      "inputs": [
        {
          "internalType": "address",
          "name": "operator",
          "type": "address"
        },
        {
          "internalType": "bool",
          "name": "approved",
          "type": "bool"
        }
      ],
      "name": "setApprovalForAll",
      "outputs": [],
      "stateMutability": "nonpayable",
      "type": "function"
    },
    {
      "inputs": [
        {
          "internalType": "bytes4",
          "name": "interfaceId",
          "type": "bytes4"
        }
      ],
      "name": "supportsInterface",
      "outputs": [
        {
          "internalType": "bool",
          "name": "",
          "type": "bool"
        }
      ],
      "stateMutability": "view",
      "type": "function"
    },
    {
      "inputs": [],
      "name": "symbol",
      "outputs": [
        {
          "internalType": "string",
          "name": "",
          "type": "string"
        }
      ],
      "stateMutability": "view",
      "type": "function"
    },
    {
      "inputs": [
        {
          "internalType": "uint256",
          "name": "_tokenId",
          "type": "uint256"
        }
      ],
      "name": "tokenURI",
      "outputs": [
        {
          "internalType": "string",
          "name": "",
          "type": "string"
        }
      ],
      "stateMutability": "view",
      "type": "function"
    },
    {
      "inputs": [
        {
          "internalType": "address",
          "name": "from",
          "type": "address"
        },
        {
          "internalType": "address",
          "name": "to",
          "type": "address"
        },
        {
          "internalType": "uint256",
          "name": "tokenId",
          "type": "uint256"
        }
      ],
      "name": "transferFrom",
      "outputs": [],
      "stateMutability": "nonpayable",
      "type": "function"
    },
    {
      "inputs": [
        {
          "internalType": "address",
          "name": "newOwner",
          "type": "address"
        }
      ],
      "name": "transferOwnership",
      "outputs": [],
      "stateMutability": "nonpayable",
      "type": "function"
    }
  ],
  "bytecode": "0x6080604052603c600a553480156200001657600080fd5b5060405162005dca38038062005dca833981016040819052620000399162000b36565b60408051808201825260068152654865726f657360d01b6020808301918252835180850190945260048452634845524f60e01b908401528151919291620000839160009162000851565b5080516200009990600190602084019062000851565b5050600160065550620000b5620000af6200077a565b6200077e565b600980546001600160a01b0319166001600160a01b03831617905560005b89518110156200057a57620000e7620008e0565b8181528a518b90839081106200010d57634e487b7160e01b600052603260045260246000fd5b602002602001015181602001819052508982815181106200013e57634e487b7160e01b600052603260045260246000fd5b602002602001015181604001819052508882815181106200016f57634e487b7160e01b600052603260045260246000fd5b6020026020010151816060018181525050888281518110620001a157634e487b7160e01b600052603260045260246000fd5b6020026020010151816080018181525050878281518110620001d357634e487b7160e01b600052603260045260246000fd5b60209081029190910181015160a083015260128054600181018255600091909152825160089091027fbb8a6a4669ba250d26cd7a459eca9d215f8307e33aebe50379bc5a3617ec34448101918255838301518051859462000259937fbb8a6a4669ba250d26cd7a459eca9d215f8307e33aebe50379bc5a3617ec34450192019062000851565b50604082015180516200027791600284019160209091019062000851565b50606082015160038201556080820151600482015560a08201518051620002a991600584019160209091019062000925565b5060c08201518051620002c791600684019160209091019062000925565b5060e082015181600701555050600060128381548110620002f857634e487b7160e01b600052603260045260246000fd5b906000526020600020906008020160405180610100016040529081600082015481526020016001820180546200032e9062000d5d565b80601f01602080910402602001604051908101604052809291908181526020018280546200035c9062000d5d565b8015620003ad5780601f106200038157610100808354040283529160200191620003ad565b820191906000526020600020905b8154815290600101906020018083116200038f57829003601f168201915b50505050508152602001600282018054620003c89062000d5d565b80601f0160208091040260200160405190810160405280929190818152602001828054620003f69062000d5d565b8015620004475780601f106200041b5761010080835404028352916020019162000447565b820191906000526020600020905b8154815290600101906020018083116200042957829003601f168201915b50505050508152602001600382015481526020016004820154815260200160058201805480602002602001604051908101604052809291908181526020018280548015620004b557602002820191906000526020600020905b815481526020019060010190808311620004a0575b50505050508152602001600682018054806020026020016040519081016040528092919081815260200182805480156200050f57602002820191906000526020600020905b815481526020019060010190808311620004fa575b5050505050815260200160078201548152505090506200056260405180606001604052806025815260200162005d7b60259139826020015183606001518460400151620007d060201b62002e431760201c565b50508080620005719062000d9a565b915050620000d3565b506200059260086200082760201b62002e8c1760201c565b6040805160a0810182528681526020808201879052918101859052606081018590526080810184905286519091600d91620005d3918391908a019062000851565b506020828101518051620005ee926001850192019062000851565b506040820151816002015560608201518160030155608082015181600401559050506200076b6040518060600160405280602a815260200162005da0602a9139600d80546200063d9062000d5d565b80601f01602080910402602001604051908101604052809291908181526020018280546200066b9062000d5d565b8015620006bc5780601f106200069057610100808354040283529160200191620006bc565b820191906000526020600020905b8154815290600101906020018083116200069e57829003601f168201915b5050600f54600e80549194509250620006d6915062000d5d565b80601f0160208091040260200160405190810160405280929190818152602001828054620007049062000d5d565b8015620007555780601f10620007295761010080835404028352916020019162000755565b820191906000526020600020905b8154815290600101906020018083116200073757829003601f168201915b5050505050620007d060201b62002e431760201c565b50505050505050505062000dd8565b3390565b600780546001600160a01b038381166001600160a01b0319831681179093556040519116919082907f8be0079c531659141344cd1fd0a4f28419497f9722a3daafe3b4186f6b6457e090600090a35050565b6200082184848484604051602401620007ed949392919062000c8c565b60408051601f198184030181529190526020810180516001600160e01b03908116638d142cdd60e01b179091526200083016565b50505050565b80546001019055565b80516a636f6e736f6c652e6c6f67602083016000808483855afa5050505050565b8280546200085f9062000d5d565b90600052602060002090601f016020900481019282620008835760008555620008ce565b82601f106200089e57805160ff1916838001178555620008ce565b82800160010185558215620008ce579182015b82811115620008ce578251825591602001919060010190620008b1565b50620008dc92915062000962565b5090565b60405180610100016040528060008152602001606081526020016060815260200160008152602001600081526020016060815260200160608152602001600081525090565b828054828255906000526020600020908101928215620008ce5791602002820182811115620008ce578251825591602001919060010190620008b1565b5b80821115620008dc576000815560010162000963565b80516001600160a01b03811681146200099157600080fd5b919050565b600082601f830112620009a7578081fd5b81516020620009c0620009ba8362000d08565b62000cdc565b82815281810190858301855b85811015620009f957620009e6898684518b010162000a63565b84529284019290840190600101620009cc565b5090979650505050505050565b600082601f83011262000a17578081fd5b8151602062000a2a620009ba8362000d08565b82815281810190858301855b85811015620009f95762000a50898684518b010162000ac4565b8452928401929084019060010162000a36565b600082601f83011262000a74578081fd5b8151602062000a87620009ba8362000d08565b828152818101908583018385028701840188101562000aa4578586fd5b855b85811015620009f95781518452928401929084019060010162000aa6565b600082601f83011262000ad5578081fd5b81516001600160401b0381111562000af15762000af162000dc2565b62000b06601f8201601f191660200162000cdc565b81815284602083860101111562000b1b578283fd5b62000b2e82602083016020870162000d2e565b949350505050565b60008060008060008060008060006101208a8c03121562000b55578485fd5b89516001600160401b038082111562000b6c578687fd5b62000b7a8d838e0162000a06565b9a5060208c015191508082111562000b90578687fd5b62000b9e8d838e0162000a06565b995060408c015191508082111562000bb4578687fd5b62000bc28d838e0162000a63565b985060608c015191508082111562000bd8578687fd5b62000be68d838e0162000996565b975060808c015191508082111562000bfc578687fd5b62000c0a8d838e0162000ac4565b965060a08c015191508082111562000c20578586fd5b5062000c2f8c828d0162000ac4565b94505060c08a0151925060e08a0151915062000c4f6101008b0162000979565b90509295985092959850929598565b6000815180845262000c7881602086016020860162000d2e565b601f01601f19169290920160200192915050565b60006080825262000ca1608083018762000c5e565b828103602084015262000cb5818762000c5e565b9050846040840152828103606084015262000cd1818562000c5e565b979650505050505050565b6040518181016001600160401b038111828210171562000d005762000d0062000dc2565b604052919050565b60006001600160401b0382111562000d245762000d2462000dc2565b5060209081020190565b60005b8381101562000d4b57818101518382015260200162000d31565b83811115620008215750506000910152565b60028104600182168062000d7257607f821691505b6020821081141562000d9457634e487b7160e01b600052602260045260246000fd5b50919050565b600060001982141562000dbb57634e487b7160e01b81526011600452602481fd5b5060010190565b634e487b7160e01b600052604160045260246000fd5b614f938062000de86000396000f3fe6080604052600436106101d85760003560e01c8063715018a611610102578063a9c3267911610095578063c8cf27f411610064578063c8cf27f414610558578063e985e9c51461057a578063f2fde38b1461059a578063f8b81ef7146105ba576101d8565b8063a9c32679146104d0578063b88d4fde146104f6578063b953084e14610516578063c87b56dd14610538576101d8565b80638da5cb5b116100d15780638da5cb5b1461045457806395d89b411461046957806398da4c951461047e578063a22cb465146104b0576101d8565b8063715018a6146103ec57806377b1d1fc146104015780637df124a11461042157806386a02f8614610441576101d8565b806323b872dd1161017a578063468fb85c11610149578063468fb85c1461036857806355e71eae1461037d5780636352211e1461039f57806370a08231146103bf576101d8565b806323b872dd146102e65780632854485d14610306578063316afe631461032857806342842e0e14610348576101d8565b806306fdde03116101b657806306fdde0314610257578063081812fc14610279578063095ea7b3146102a657806314ce5139146102c6576101d8565b806301ffc9a7146101dd5780630619f932146102135780630665f96114610235575b600080fd5b3480156101e957600080fd5b506101fd6101f8366004613d61565b6105cd565b60405161020a9190614480565b60405180910390f35b34801561021f57600080fd5b5061023361022e366004613d99565b610615565b005b34801561024157600080fd5b5061024a610812565b60405161020a9190614c12565b34801561026357600080fd5b5061026c61096f565b60405161020a919061448b565b34801561028557600080fd5b50610299610294366004613d99565b610a01565b60405161020a9190614241565b3480156102b257600080fd5b506102336102c1366004613bb4565b610a44565b3480156102d257600080fd5b506102336102e1366004613c79565b610adc565b3480156102f257600080fd5b50610233610301366004613aca565b610cdb565b34801561031257600080fd5b5061031b610d13565b60405161020a91906142f1565b34801561033457600080fd5b50610233610343366004613bdd565b610eaa565b34801561035457600080fd5b50610233610363366004613aca565b6110b2565b34801561037457600080fd5b506102336110cd565b34801561038957600080fd5b506103926115a5565b60405161020a91906143ea565b3480156103ab57600080fd5b506102996103ba366004613d99565b61173d565b3480156103cb57600080fd5b506103df6103da366004613a7e565b611772565b60405161020a9190614c89565b3480156103f857600080fd5b506102336117b6565b34801561040d57600080fd5b5061023361041c366004613d99565b611801565b34801561042d57600080fd5b506103df61043c366004613a7e565b6118ec565b61023361044f366004613d99565b6118fe565b34801561046057600080fd5b50610299611b2a565b34801561047557600080fd5b5061026c611b39565b34801561048a57600080fd5b5061049e610499366004613d99565b611b48565b60405161020a96959493929190614c92565b3480156104bc57600080fd5b506102336104cb366004613b7e565b611c8d565b3480156104dc57600080fd5b506104e5611ca3565b60405161020a9594939291906144e8565b34801561050257600080fd5b50610233610511366004613b05565b611dd5565b34801561052257600080fd5b5061052b611e0e565b60405161020a919061438a565b34801561054457600080fd5b5061026c610553366004613d99565b612061565b34801561056457600080fd5b5061056d6124fd565b60405161020a9190614c76565b34801561058657600080fd5b506101fd610595366004613a98565b612753565b3480156105a657600080fd5b506102336105b5366004613a7e565b612781565b6102336105c8366004613d99565b6127f2565b60006001600160e01b031982166380ac58cd60e01b14806105fe57506001600160e01b03198216635b5e139f60e01b145b8061060d575061060d82612e95565b90505b919050565b336000908152601460209081526040808320548084526013909252909120600381015461065d5760405162461bcd60e51b81526004016106549061492f565b60405180910390fd5b600f5461067c5760405162461bcd60e51b815260040161065490614654565b6000805b6005830154811015610709578260050181815481106106af57634e487b7160e01b600052603260045260246000fd5b90600052602060002001548514156106f757600b85815481106106e257634e487b7160e01b600052603260045260246000fd5b90600052602060002090600402016002015491505b8061070181614e0d565b915050610680565b506000811161072a5760405162461bcd60e51b81526004016106549061474e565b600f5481111561073e576000600f55610750565b600f5461074c908290614d8f565b600f555b6011546003830154101561076a5760006003830155610782565b601154600383015461077c9190614d8f565b60038301555b6107a6604051806060016040528060258152602001614ea360259139600f54612eae565b6107cc604051806060016040528060288152602001614f08602891398360030154612eae565b600f5460038301546040517f838ab28464562786a6c4ab2311964b82fa60bd9b14aa7e856af1f3f18d41a41492610804929091614cdc565b60405180910390a150505050565b61081a6137f6565b600d6040518060a001604052908160008201805461083790614dd2565b80601f016020809104026020016040519081016040528092919081815260200182805461086390614dd2565b80156108b05780601f10610885576101008083540402835291602001916108b0565b820191906000526020600020905b81548152906001019060200180831161089357829003601f168201915b505050505081526020016001820180546108c990614dd2565b80601f01602080910402602001604051908101604052809291908181526020018280546108f590614dd2565b80156109425780601f1061091757610100808354040283529160200191610942565b820191906000526020600020905b81548152906001019060200180831161092557829003601f168201915b50505050508152602001600282015481526020016003820154815260200160048201548152505090505b90565b60606000805461097e90614dd2565b80601f01602080910402602001604051908101604052809291908181526020018280546109aa90614dd2565b80156109f75780601f106109cc576101008083540402835291602001916109f7565b820191906000526020600020905b8154815290600101906020018083116109da57829003601f168201915b5050505050905090565b6000610a0c82612ef3565b610a285760405162461bcd60e51b8152600401610654906149b1565b506000908152600460205260409020546001600160a01b031690565b6000610a4f8261173d565b9050806001600160a01b0316836001600160a01b03161415610a835760405162461bcd60e51b815260040161065490614a7b565b806001600160a01b0316610a95612f10565b6001600160a01b03161480610ab15750610ab181610595612f10565b610acd5760405162461bcd60e51b81526004016106549061483f565b610ad78383612f14565b505050565b610ae4612f10565b6001600160a01b0316610af5611b2a565b6001600160a01b031614610b1b5760405162461bcd60e51b8152600401610654906149fd565b60005b8151811015610c9557600c6040518060a00160405280858481518110610b5457634e487b7160e01b600052603260045260246000fd5b60200260200101518152602001848481518110610b8157634e487b7160e01b600052603260045260246000fd5b60200260200101518152602001888481518110610bae57634e487b7160e01b600052603260045260246000fd5b60200260200101518152602001868481518110610bdb57634e487b7160e01b600052603260045260246000fd5b60200260200101518152602001878481518110610c0857634e487b7160e01b600052603260045260246000fd5b6020908102919091018101519091528254600181810185556000948552938290208351600590920201908155828201519381019390935560408201518051929392610c599260028501920190613825565b506060820151600382015560808201518051610c7f916004840191602090910190613825565b5050508080610c8d90614e0d565b915050610b1e565b50610cd46040518060400160405280601f81526020017f446f6e6520616464696e6720616c6c207370656369616c2061747461636b7300815250612f82565b5050505050565b610cec610ce6612f10565b82612fc5565b610d085760405162461bcd60e51b815260040161065490614b76565b610ad783838361304a565b6060600b805480602002602001604051908101604052809291908181526020016000905b82821015610ea1578382906000526020600020906004020160405180608001604052908160008201548152602001600182018054610d7490614dd2565b80601f0160208091040260200160405190810160405280929190818152602001828054610da090614dd2565b8015610ded5780601f10610dc257610100808354040283529160200191610ded565b820191906000526020600020905b815481529060010190602001808311610dd057829003601f168201915b5050505050815260200160028201548152602001600382018054610e1090614dd2565b80601f0160208091040260200160405190810160405280929190818152602001828054610e3c90614dd2565b8015610e895780601f10610e5e57610100808354040283529160200191610e89565b820191906000526020600020905b815481529060010190602001808311610e6c57829003601f168201915b50505050508152505081526020019060010190610d37565b50505050905090565b610eb2612f10565b6001600160a01b0316610ec3611b2a565b6001600160a01b031614610ee95760405162461bcd60e51b8152600401610654906149fd565b610f296040518060400160405280601781526020017f61747461636b496e6465786573204c454e474854203b200000000000000000008152508251612eae565b60005b815181101561106d57600b6040518060800160405280848481518110610f6257634e487b7160e01b600052603260045260246000fd5b60200260200101518152602001878481518110610f8f57634e487b7160e01b600052603260045260246000fd5b60200260200101518152602001858481518110610fbc57634e487b7160e01b600052603260045260246000fd5b60200260200101518152602001868481518110610fe957634e487b7160e01b600052603260045260246000fd5b60209081029190910181015190915282546001818101855560009485529382902083516004909202019081558282015180519394919361103193928501929190910190613825565b506040820151600282015560608201518051611057916003840191602090910190613825565b505050808061106590614e0d565b915050610f2c565b506110ac6040518060400160405280601781526020017f446f6e6520616464696e6720616c6c2061747461636b73000000000000000000815250612f82565b50505050565b610ad783838360405180602001604052806000815250611dd5565b336000908152601460205260409020546110f95760405162461bcd60e51b815260040161065490614572565b600954604051636eb1769f60e11b815267016345785d8a0000916001600160a01b03169063dd62ed3e906111339033903090600401614255565b60206040518083038186803b15801561114b57600080fd5b505afa15801561115f573d6000803e3d6000fd5b505050506040513d601f19601f820116820180604052508101906111839190613db1565b10156111a15760405162461bcd60e51b815260040161065490614b19565b6009546040516323b872dd60e01b81526001600160a01b03909116906323b872dd906111dd903390309067016345785d8a00009060040161426f565b602060405180830381600087803b1580156111f757600080fd5b505af115801561120b573d6000803e3d6000fd5b505050506040513d601f19601f8201168201806040525081019061122f9190613d45565b503360009081526014602090815260408083205480845260138352818420825161010081019093528054835260018101805492959491929184019161127390614dd2565b80601f016020809104026020016040519081016040528092919081815260200182805461129f90614dd2565b80156112ec5780601f106112c1576101008083540402835291602001916112ec565b820191906000526020600020905b8154815290600101906020018083116112cf57829003601f168201915b5050505050815260200160028201805461130590614dd2565b80601f016020809104026020016040519081016040528092919081815260200182805461133190614dd2565b801561137e5780601f106113535761010080835404028352916020019161137e565b820191906000526020600020905b81548152906001019060200180831161136157829003601f168201915b505050505081526020016003820154815260200160048201548152602001600582018054806020026020016040519081016040528092919081815260200182805480156113ea57602002820191906000526020600020905b8154815260200190600101908083116113d6575b505050505081526020016006820180548060200260200160405190810160405280929190818152602001828054801561144257602002820191906000526020600020905b81548152602001906001019080831161142e575b505050505081526020016007820154815250509050600042905060008260e001518261146e9190614d8f565b9050600a548111156110ac576000611491600a548361317790919063ffffffff16565b84606001516114a09190614d44565b905083608001518111156114b5575060808301515b6060840181905260e0840183905260008581526013602090815260409091208551815581860151805187936114f1926001850192910190613825565b506040820151805161150d916002840191602090910190613825565b50606082015160038201556080820151600482015560a0820151805161153d9160058401916020909101906138a5565b5060c082015180516115599160068401916020909101906138a5565b5060e082015181600701559050507f40e999d009372369c6c1be31b1caf3f8a088e89534cd3ded6fb3e56b33f2039c816040516115969190614c89565b60405180910390a15050505050565b6060600c805480602002602001604051908101604052809291908181526020016000905b82821015610ea157838290600052602060002090600502016040518060a0016040529081600082015481526020016001820154815260200160028201805461161090614dd2565b80601f016020809104026020016040519081016040528092919081815260200182805461163c90614dd2565b80156116895780601f1061165e57610100808354040283529160200191611689565b820191906000526020600020905b81548152906001019060200180831161166c57829003601f168201915b50505050508152602001600382015481526020016004820180546116ac90614dd2565b80601f01602080910402602001604051908101604052809291908181526020018280546116d890614dd2565b80156117255780601f106116fa57610100808354040283529160200191611725565b820191906000526020600020905b81548152906001019060200180831161170857829003601f168201915b505050505081525050815260200190600101906115c9565b6000818152600260205260408120546001600160a01b03168061060d5760405162461bcd60e51b8152600401610654906148e6565b60006001600160a01b03821661179a5760405162461bcd60e51b81526004016106549061489c565b506001600160a01b031660009081526003602052604090205490565b6117be612f10565b6001600160a01b03166117cf611b2a565b6001600160a01b0316146117f55760405162461bcd60e51b8152600401610654906149fd565b6117ff600061318a565b565b33600090815260146020908152604080832054808452601390925290912060038101546118405760405162461bcd60e51b81526004016106549061492f565b600f5461185f5760405162461bcd60e51b815260040161065490614808565b6000805b60068301548110156107095782600601818154811061189257634e487b7160e01b600052603260045260246000fd5b90600052602060002001548514156118da57600c85815481106118c557634e487b7160e01b600052603260045260246000fd5b90600052602060002090600502016003015491505b806118e481614e0d565b915050611863565b60146020526000908152604090205481565b336000908152601460205260409020548061192b5760405162461bcd60e51b815260040161065490614bc7565b6000818152601360205260409020600c80548490811061195b57634e487b7160e01b600052603260045260246000fd5b6000918252602090912060059091020154600954604051636eb1769f60e11b81526001600160a01b039091169063dd62ed3e9061199e9033903090600401614255565b60206040518083038186803b1580156119b657600080fd5b505afa1580156119ca573d6000803e3d6000fd5b505050506040513d601f19601f820116820180604052508101906119ee9190613db1565b1015611a0c5760405162461bcd60e51b815260040161065490614abc565b600954600c80546001600160a01b03909216916323b872dd91339130919088908110611a4857634e487b7160e01b600052603260045260246000fd5b9060005260206000209060050201600001546040518463ffffffff1660e01b8152600401611a789392919061426f565b602060405180830381600087803b158015611a9257600080fd5b505af1158015611aa6573d6000803e3d6000fd5b505050506040513d601f19601f82011682018060405250810190611aca9190613d45565b506006810180546001810182556000918252602090912001839055600f5460038201546040517f838ab28464562786a6c4ab2311964b82fa60bd9b14aa7e856af1f3f18d41a41492611b1d929091614cdc565b60405180910390a1505050565b6007546001600160a01b031690565b60606001805461097e90614dd2565b60136020526000908152604090208054600182018054919291611b6a90614dd2565b80601f0160208091040260200160405190810160405280929190818152602001828054611b9690614dd2565b8015611be35780601f10611bb857610100808354040283529160200191611be3565b820191906000526020600020905b815481529060010190602001808311611bc657829003601f168201915b505050505090806002018054611bf890614dd2565b80601f0160208091040260200160405190810160405280929190818152602001828054611c2490614dd2565b8015611c715780601f10611c4657610100808354040283529160200191611c71565b820191906000526020600020905b815481529060010190602001808311611c5457829003601f168201915b5050505050908060030154908060040154908060070154905086565b611c9f611c98612f10565b83836131dc565b5050565b600d80548190611cb290614dd2565b80601f0160208091040260200160405190810160405280929190818152602001828054611cde90614dd2565b8015611d2b5780601f10611d0057610100808354040283529160200191611d2b565b820191906000526020600020905b815481529060010190602001808311611d0e57829003601f168201915b505050505090806001018054611d4090614dd2565b80601f0160208091040260200160405190810160405280929190818152602001828054611d6c90614dd2565b8015611db95780601f10611d8e57610100808354040283529160200191611db9565b820191906000526020600020905b815481529060010190602001808311611d9c57829003601f168201915b5050505050908060020154908060030154908060040154905085565b611de6611de0612f10565b83612fc5565b611e025760405162461bcd60e51b815260040161065490614b76565b6110ac8484848461327f565b60606012805480602002602001604051908101604052809291908181526020016000905b82821015610ea157838290600052602060002090600802016040518061010001604052908160008201548152602001600182018054611e7090614dd2565b80601f0160208091040260200160405190810160405280929190818152602001828054611e9c90614dd2565b8015611ee95780601f10611ebe57610100808354040283529160200191611ee9565b820191906000526020600020905b815481529060010190602001808311611ecc57829003601f168201915b50505050508152602001600282018054611f0290614dd2565b80601f0160208091040260200160405190810160405280929190818152602001828054611f2e90614dd2565b8015611f7b5780601f10611f5057610100808354040283529160200191611f7b565b820191906000526020600020905b815481529060010190602001808311611f5e57829003601f168201915b50505050508152602001600382015481526020016004820154815260200160058201805480602002602001604051908101604052809291908181526020018280548015611fe757602002820191906000526020600020905b815481526020019060010190808311611fd3575b505050505081526020016006820180548060200260200160405190810160405280929190818152602001828054801561203f57602002820191906000526020600020905b81548152602001906001019080831161202b575b5050505050815260200160078201548152505081526020019060010190611e32565b60008181526013602090815260408083208151610100810190925280548252600181018054606095948401919061209790614dd2565b80601f01602080910402602001604051908101604052809291908181526020018280546120c390614dd2565b80156121105780601f106120e557610100808354040283529160200191612110565b820191906000526020600020905b8154815290600101906020018083116120f357829003601f168201915b5050505050815260200160028201805461212990614dd2565b80601f016020809104026020016040519081016040528092919081815260200182805461215590614dd2565b80156121a25780601f10612177576101008083540402835291602001916121a2565b820191906000526020600020905b81548152906001019060200180831161218557829003601f168201915b5050505050815260200160038201548152602001600482015481526020016005820180548060200260200160405190810160405280929190818152602001828054801561220e57602002820191906000526020600020905b8154815260200190600101908083116121fa575b505050505081526020016006820180548060200260200160405190810160405280929190818152602001828054801561226657602002820191906000526020600020905b815481526020019060010190808311612252575b505050505081526020016007820154815250509050600061228a82606001516132b2565b9050600061229b83608001516132b2565b60408051602080820183526000808352835191820190935282815292935091905b8560c001515181101561239e5760008660c0015182815181106122ef57634e487b7160e01b600052603260045260246000fd5b6020026020010151905083600c828154811061231b57634e487b7160e01b600052603260045260246000fd5b9060005260206000209060050201600201612367600c848154811061235057634e487b7160e01b600052603260045260246000fd5b9060005260206000209060050201600301546132b2565b60405160200161237993929190614030565b604051602081830303815290604052935050808061239690614e0d565b9150506122bc565b5060005b8560a00151518110156124845760008660a0015182815181106123d557634e487b7160e01b600052603260045260246000fd5b6020026020010151905082600b828154811061240157634e487b7160e01b600052603260045260246000fd5b906000526020600020906004020160010161244d600b848154811061243657634e487b7160e01b600052603260045260246000fd5b9060005260206000209060040201600201546132b2565b60405160200161245f93929190613fb2565b604051602081830303815290604052925050808061247c90614e0d565b9150506123a2565b5060006124cb86602001516124988a6132b2565b8860400151888888886040516020016124b79796959493929190614082565b6040516020818303038152906040526133cd565b90506000816040516020016124e091906141fc565b60408051808303601f190181529190529998505050505050505050565b6125056138df565b33600090815260146020526040902054801561273e5760136000828152602001908152602001600020604051806101000160405290816000820154815260200160018201805461255490614dd2565b80601f016020809104026020016040519081016040528092919081815260200182805461258090614dd2565b80156125cd5780601f106125a2576101008083540402835291602001916125cd565b820191906000526020600020905b8154815290600101906020018083116125b057829003601f168201915b505050505081526020016002820180546125e690614dd2565b80601f016020809104026020016040519081016040528092919081815260200182805461261290614dd2565b801561265f5780601f106126345761010080835404028352916020019161265f565b820191906000526020600020905b81548152906001019060200180831161264257829003601f168201915b505050505081526020016003820154815260200160048201548152602001600582018054806020026020016040519081016040528092919081815260200182805480156126cb57602002820191906000526020600020905b8154815260200190600101908083116126b7575b505050505081526020016006820180548060200260200160405190810160405280929190818152602001828054801561272357602002820191906000526020600020905b81548152602001906001019080831161270f575b5050505050815260200160078201548152505091505061096c565b6127466138df565b915061096c9050565b5090565b6001600160a01b03918216600090815260056020908152604080832093909416825291909152205460ff1690565b612789612f10565b6001600160a01b031661279a611b2a565b6001600160a01b0316146127c05760405162461bcd60e51b8152600401610654906149fd565b6001600160a01b0381166127e65760405162461bcd60e51b81526004016106549061460e565b6127ef8161318a565b50565b60125481106128135760405162461bcd60e51b8152600401610654906147d1565b600954604051636eb1769f60e11b8152678ac7230489e80000916001600160a01b03169063dd62ed3e9061284d9033903090600401614255565b60206040518083038186803b15801561286557600080fd5b505afa158015612879573d6000803e3d6000fd5b505050506040513d601f19601f8201168201806040525081019061289d9190613db1565b10156128bb5760405162461bcd60e51b815260040161065490614b19565b6009546040516323b872dd60e01b81526001600160a01b03909116906323b872dd906128f79033903090678ac7230489e800009060040161426f565b602060405180830381600087803b15801561291157600080fd5b505af1158015612925573d6000803e3d6000fd5b505050506040513d601f19601f820116820180604052508101906129499190613d45565b5060006129566008613541565b90506129623382613545565b6040518061010001604052808381526020016012848154811061299557634e487b7160e01b600052603260045260246000fd5b906000526020600020906008020160010180546129b190614dd2565b80601f01602080910402602001604051908101604052809291908181526020018280546129dd90614dd2565b8015612a2a5780601f106129ff57610100808354040283529160200191612a2a565b820191906000526020600020905b815481529060010190602001808311612a0d57829003601f168201915b5050505050815260200160128481548110612a5557634e487b7160e01b600052603260045260246000fd5b90600052602060002090600802016002018054612a7190614dd2565b80601f0160208091040260200160405190810160405280929190818152602001828054612a9d90614dd2565b8015612aea5780601f10612abf57610100808354040283529160200191612aea565b820191906000526020600020905b815481529060010190602001808311612acd57829003601f168201915b5050505050815260200160128481548110612b1557634e487b7160e01b600052603260045260246000fd5b906000526020600020906008020160030154815260200160128481548110612b4d57634e487b7160e01b600052603260045260246000fd5b906000526020600020906008020160040154815260200160128481548110612b8557634e487b7160e01b600052603260045260246000fd5b9060005260206000209060080201600501805480602002602001604051908101604052809291908181526020018280548015612be057602002820191906000526020600020905b815481526020019060010190808311612bcc575b5050505050815260200160128481548110612c0b57634e487b7160e01b600052603260045260246000fd5b9060005260206000209060080201600601805480602002602001604051908101604052809291908181526020018280548015612c6657602002820191906000526020600020905b815481526020019060010190808311612c52575b50505091835250504260209182015260008381526013825260409020825181558282015180519192612ca092600185019290910190613825565b5060408201518051612cbc916002840191602090910190613825565b50606082015160038201556080820151600482015560a08201518051612cec9160058401916020909101906138a5565b5060c08201518051612d089160068401916020909101906138a5565b5060e08201518160070155905050612d396040518060600160405280602e8152602001614f30602e9139828461355f565b336000908152601460205260409020819055612d556008612e8c565b6040805180820182526013815272021b7b73a3930b1ba103130b630b731b2901d1606d1b602082015260095491516370a0823160e01b8152612e04926001600160a01b0316906370a0823190612daf903090600401614241565b60206040518083038186803b158015612dc757600080fd5b505afa158015612ddb573d6000803e3d6000fd5b505050506040513d601f19601f82011682018060405250810190612dff9190613db1565b612eae565b7f4bc303fd457a97b4691b9af582ce71868a3d258638c8d4f8c60988a0f0bfb8cd338284604051612e37939291906142d0565b60405180910390a15050565b6110ac84848484604051602401612e5d949392919061449e565b60408051601f198184030181529190526020810180516001600160e01b0316638d142cdd60e01b1790526135a2565b80546001019055565b6001600160e01b031981166301ffc9a760e01b14919050565b611c9f8282604051602401612ec492919061452b565b60408051601f198184030181529190526020810180516001600160e01b03166309710a9d60e41b1790526135a2565b6000908152600260205260409020546001600160a01b0316151590565b3390565b600081815260046020526040902080546001600160a01b0319166001600160a01b0384169081179091558190612f498261173d565b6001600160a01b03167f8c5be1e5ebec7d5bd14f71427d1e84f3dd0314c0f7b2291e5b200ac8c7c3b92560405160405180910390a45050565b6127ef81604051602401612f96919061448b565b60408051601f198184030181529190526020810180516001600160e01b031663104c13eb60e21b1790526135a2565b6000612fd082612ef3565b612fec5760405162461bcd60e51b815260040161065490614785565b6000612ff78361173d565b9050806001600160a01b0316846001600160a01b031614806130325750836001600160a01b031661302784610a01565b6001600160a01b0316145b8061304257506130428185612753565b949350505050565b826001600160a01b031661305d8261173d565b6001600160a01b0316146130835760405162461bcd60e51b815260040161065490614a32565b6001600160a01b0382166130a95760405162461bcd60e51b8152600401610654906146d3565b6130b4838383610ad7565b6130bf600082612f14565b6001600160a01b03831660009081526003602052604081208054600192906130e8908490614d8f565b90915550506001600160a01b0382166000908152600360205260408120805460019290613116908490614d44565b909155505060008181526002602052604080822080546001600160a01b0319166001600160a01b0386811691821790925591518493918716917fddf252ad1be2c89b69c2b068fc378daa952ba7f163c4a11628f55a4df523b3ef91a4505050565b60006131838284614d5c565b9392505050565b600780546001600160a01b038381166001600160a01b0319831681179093556040519116919082907f8be0079c531659141344cd1fd0a4f28419497f9722a3daafe3b4186f6b6457e090600090a35050565b816001600160a01b0316836001600160a01b0316141561320e5760405162461bcd60e51b815260040161065490614717565b6001600160a01b0383811660008181526005602090815260408083209487168084529490915290819020805460ff1916851515179055517f17307eab39ab6107e8899845ad3d59bd9653f200f220920489ca2b5937696c3190613272908590614480565b60405180910390a3505050565b61328a84848461304a565b613296848484846135c3565b6110ac5760405162461bcd60e51b8152600401610654906145bc565b6060816132d757506040805180820190915260018152600360fc1b6020820152610610565b8160005b811561330157806132eb81614e0d565b91506132fa9050600a83614d5c565b91506132db565b60008167ffffffffffffffff81111561332a57634e487b7160e01b600052604160045260246000fd5b6040519080825280601f01601f191660200182016040528015613354576020820181803683370190505b5090505b841561304257613369600183614d8f565b9150613376600a86614e28565b613381906030614d44565b60f81b8183815181106133a457634e487b7160e01b600052603260045260246000fd5b60200101906001600160f81b031916908160001a9053506133c6600a86614d5c565b9450613358565b8051606090806133ed575050604080516020810190915260008152610610565b600060036133fc836002614d44565b6134069190614d5c565b613411906004614d70565b90506000613420826020614d44565b67ffffffffffffffff81111561344657634e487b7160e01b600052604160045260246000fd5b6040519080825280601f01601f191660200182016040528015613470576020820181803683370190505b5090506000604051806060016040528060408152602001614ec8604091399050600181016020830160005b868110156134fc576003818a01810151603f601282901c8116860151600c83901c8216870151600684901c831688015192909316870151600891821b60ff94851601821b92841692909201901b91160160e01b83526004909201910161349b565b506003860660018114613516576002811461352757613533565b613d3d60f01b600119830152613533565b603d60f81b6000198301525b505050918152949350505050565b5490565b611c9f8282604051806020016040528060008152506136de565b610ad78383836040516024016135779392919061454d565b60408051601f198184030181529190526020810180516001600160e01b031663969cdd0360e01b1790525b80516a636f6e736f6c652e6c6f67602083016000808483855afa5050505050565b60006135d7846001600160a01b0316613711565b156136d357836001600160a01b031663150b7a026135f3612f10565b8786866040518563ffffffff1660e01b81526004016136159493929190614293565b602060405180830381600087803b15801561362f57600080fd5b505af192505050801561365f575060408051601f3d908101601f1916820190925261365c91810190613d7d565b60015b6136b9573d80801561368d576040519150601f19603f3d011682016040523d82523d6000602084013e613692565b606091505b5080516136b15760405162461bcd60e51b8152600401610654906145bc565b805181602001fd5b6001600160e01b031916630a85bd0160e11b149050613042565b506001949350505050565b6136e88383613717565b6136f560008484846135c3565b610ad75760405162461bcd60e51b8152600401610654906145bc565b3b151590565b6001600160a01b03821661373d5760405162461bcd60e51b81526004016106549061497c565b61374681612ef3565b156137635760405162461bcd60e51b81526004016106549061469c565b61376f60008383610ad7565b6001600160a01b0382166000908152600360205260408120805460019290613798908490614d44565b909155505060008181526002602052604080822080546001600160a01b0319166001600160a01b03861690811790915590518392907fddf252ad1be2c89b69c2b068fc378daa952ba7f163c4a11628f55a4df523b3ef908290a45050565b6040518060a0016040528060608152602001606081526020016000815260200160008152602001600081525090565b82805461383190614dd2565b90600052602060002090601f0160209004810192826138535760008555613899565b82601f1061386c57805160ff1916838001178555613899565b82800160010185558215613899579182015b8281111561389957825182559160200191906001019061387e565b5061274f929150613924565b828054828255906000526020600020908101928215613899579160200282018281111561389957825182559160200191906001019061387e565b60405180610100016040528060008152602001606081526020016060815260200160008152602001600081526020016060815260200160608152602001600081525090565b5b8082111561274f5760008155600101613925565b600067ffffffffffffffff83111561395357613953614e68565b613966601f8401601f1916602001614cea565b905082815283838301111561397a57600080fd5b828260208301376000602084830101529392505050565b80356001600160a01b038116811461061057600080fd5b600082601f8301126139b8578081fd5b813560206139cd6139c883614d14565b614cea565b82815281810190858301855b85811015613a17578135880189603f8201126139f3578788fd5b613a048a8783013560408401613939565b85525092840192908401906001016139d9565b5090979650505050505050565b600082601f830112613a34578081fd5b81356020613a446139c883614d14565b8281528181019085830183850287018401881015613a60578586fd5b855b85811015613a1757813584529284019290840190600101613a62565b600060208284031215613a8f578081fd5b61318382613991565b60008060408385031215613aaa578081fd5b613ab383613991565b9150613ac160208401613991565b90509250929050565b600080600060608486031215613ade578081fd5b613ae784613991565b9250613af560208501613991565b9150604084013590509250925092565b60008060008060808587031215613b1a578081fd5b613b2385613991565b9350613b3160208601613991565b925060408501359150606085013567ffffffffffffffff811115613b53578182fd5b8501601f81018713613b63578182fd5b613b7287823560208401613939565b91505092959194509250565b60008060408385031215613b90578182fd5b613b9983613991565b91506020830135613ba981614e7e565b809150509250929050565b60008060408385031215613bc6578182fd5b613bcf83613991565b946020939093013593505050565b60008060008060808587031215613bf2578384fd5b843567ffffffffffffffff80821115613c09578586fd5b613c15888389016139a8565b95506020870135915080821115613c2a578485fd5b613c36888389016139a8565b94506040870135915080821115613c4b578384fd5b613c5788838901613a24565b93506060870135915080821115613c6c578283fd5b50613b7287828801613a24565b600080600080600060a08688031215613c90578283fd5b853567ffffffffffffffff80821115613ca7578485fd5b613cb389838a016139a8565b96506020880135915080821115613cc8578485fd5b613cd489838a016139a8565b95506040880135915080821115613ce9578485fd5b613cf589838a01613a24565b94506060880135915080821115613d0a578283fd5b613d1689838a01613a24565b93506080880135915080821115613d2b578283fd5b50613d3888828901613a24565b9150509295509295909350565b600060208284031215613d56578081fd5b815161318381614e7e565b600060208284031215613d72578081fd5b813561318381614e8c565b600060208284031215613d8e578081fd5b815161318381614e8c565b600060208284031215613daa578081fd5b5035919050565b600060208284031215613dc2578081fd5b5051919050565b6000815180845260208085019450808401835b83811015613df857815187529582019590820190600101613ddc565b509495945050505050565b60008151808452613e1b816020860160208601614da6565b601f01601f19169290920160200192915050565b60008151613e41818560208601614da6565b9290920192915050565b805460009060028104600180831680613e6557607f831692505b6020808410821415613e8557634e487b7160e01b86526022600452602486fd5b818015613e995760018114613eaa57613ed7565b60ff19861689528489019650613ed7565b613eb388614d38565b60005b86811015613ecf5781548b820152908501908301613eb6565b505084890196505b50505050505092915050565b6e016101136b0bc2fbb30b63ab2911d1608d1b8152600f0190565b607d60f81b815260010190565b615d7d60f01b815260020190565b6000610100825184526020830151816020860152613f3982860182613e03565b91505060408301518482036040860152613f538282613e03565b915050606083015160608501526080830151608085015260a083015184820360a0860152613f818282613dc9565b91505060c083015184820360c0860152613f9b8282613dc9565b91505060e083015160e08501528091505092915050565b60008451613fc4818460208901614da6565b7116103d913a3930b4ba2fba3cb832911d101160711b908301908152613fed6012820186613e4b565b6b0111610113b30b63ab2911d160a51b8152845190915061401581600c840160208801614da6565b607d60f81b600c9290910191820152600d0195945050505050565b60008451614042818460208901614da6565b7f2c207b2274726169745f74797065223a20225370656369616c2041747461636b9083019081526201016960ed1b6020820152613fed6023820186613e4b565b693d913730b6b2911d101160b11b815287516000906140a881600a850160208d01614da6565b6a01016969027232a10119d160ad1b600a9184019182015288516140d3816015840160208d01614da6565b7f222c20226465736372697074696f6e223a20225468697320697320616e204e46601592909101918201527f542074686174206c6574732070656f706c6520706c617920696e20746865204560358201527f706963204e46542047616d6521222c2022696d616765223a20220000000000006055820152875161415d81606f840160208c01614da6565b7f222c202261747472696275746573223a205b7b2274726169745f74797065223a606f92909101918201527f20224865616c746820506f696e7473222c202276616c7565223a200000000000608f8201526141ee6141e96141e36141dd6141d86141d26141cd60aa88018e613e2f565b613ee3565b8b613e2f565b613efe565b88613e2f565b86613e2f565b613f0b565b9a9950505050505050505050565b60007f646174613a6170706c69636174696f6e2f6a736f6e3b6261736536342c0000008252825161423481601d850160208701614da6565b91909101601d0192915050565b6001600160a01b0391909116815260200190565b6001600160a01b0392831681529116602082015260400190565b6001600160a01b039384168152919092166020820152604081019190915260600190565b6001600160a01b03858116825284166020820152604081018390526080606082018190526000906142c690830184613e03565b9695505050505050565b6001600160a01b039390931683526020830191909152604082015260600190565b60208082528251828201819052600091906040908185019080840286018301878501865b8381101561437c57603f19898403018552815160808151855288820151818a87015261434382870182613e03565b9150508782015188860152606080830151925085820381870152506143688183613e03565b968901969450505090860190600101614315565b509098975050505050505050565b6000602080830181845280855180835260408601915060408482028701019250838701855b828110156143dd57603f198886030184526143cb858351613f19565b945092850192908501906001016143af565b5092979650505050505050565b60208082528251828201819052600091906040908185019080840286018301878501865b8381101561437c57603f19898403018552815160a081518552888201518986015287820151818987015261444482870182613e03565b91505060608083015181870152506080808301519250858203818701525061446c8183613e03565b96890196945050509086019060010161440e565b901515815260200190565b6000602082526131836020830184613e03565b6000608082526144b16080830187613e03565b82810360208401526144c38187613e03565b905084604084015282810360608401526144dd8185613e03565b979650505050505050565b600060a082526144fb60a0830188613e03565b828103602084015261450d8188613e03565b60408401969096525050606081019290925260809091015292915050565b60006040825261453e6040830185613e03565b90508260208301529392505050565b6000606082526145606060830186613e03565b60208301949094525060400152919050565b6020808252602a908201527f596f7520646f6e2774206861766520612063686172616374657220746f20636c6040820152690c2d2da40d0cac2d8e8d60b31b606082015260800190565b60208082526032908201527f4552433732313a207472616e7366657220746f206e6f6e20455243373231526560408201527131b2b4bb32b91034b6b83632b6b2b73a32b960711b606082015260800190565b60208082526026908201527f4f776e61626c653a206e6577206f776e657220697320746865207a65726f206160408201526564647265737360d01b606082015260800190565b60208082526028908201527f4572726f723a20626f7373206d757374206861766520485020746f206174746160408201526731b5903137b9b99760c11b606082015260800190565b6020808252601c908201527f4552433732313a20746f6b656e20616c7265616479206d696e74656400000000604082015260600190565b60208082526024908201527f4552433732313a207472616e7366657220746f20746865207a65726f206164646040820152637265737360e01b606082015260800190565b60208082526019908201527f4552433732313a20617070726f766520746f2063616c6c657200000000000000604082015260600190565b6020808252601f908201527f4572726f723a2061747461636b206d75737420686176652064616d6167652e00604082015260600190565b6020808252602c908201527f4552433732313a206f70657261746f7220717565727920666f72206e6f6e657860408201526b34b9ba32b73a103a37b5b2b760a11b606082015260800190565b6020808252601d908201527f43686172616374657220696e646578206f7574206f6620626f756e6473000000604082015260600190565b60208082526019908201527f4572726f723a20626f7373206d75737420686176652048502e00000000000000604082015260600190565b60208082526038908201527f4552433732313a20617070726f76652063616c6c6572206973206e6f74206f7760408201527f6e6572206e6f7220617070726f76656420666f7220616c6c0000000000000000606082015260800190565b6020808252602a908201527f4552433732313a2062616c616e636520717565727920666f7220746865207a65604082015269726f206164647265737360b01b606082015260800190565b60208082526029908201527f4552433732313a206f776e657220717565727920666f72206e6f6e657869737460408201526832b73a103a37b5b2b760b91b606082015260800190565b6020808252602d908201527f4572726f723a20636861726163746572206d757374206861766520485020746f60408201526c1030ba3a30b1b5903137b9b99760991b606082015260800190565b6020808252818101527f4552433732313a206d696e7420746f20746865207a65726f2061646472657373604082015260600190565b6020808252602c908201527f4552433732313a20617070726f76656420717565727920666f72206e6f6e657860408201526b34b9ba32b73a103a37b5b2b760a11b606082015260800190565b6020808252818101527f4f776e61626c653a2063616c6c6572206973206e6f7420746865206f776e6572604082015260600190565b60208082526029908201527f4552433732313a207472616e73666572206f6620746f6b656e2074686174206960408201526839903737ba1037bbb760b91b606082015260800190565b60208082526021908201527f4552433732313a20617070726f76616c20746f2063757272656e74206f776e656040820152603960f91b606082015260800190565b6020808252603c908201527f4572726f723a2075736572206d7573742070726f7669646520656e6f7567682060408201527f746f6b656e20746f20627579207370656369616c2061747461636b2e00000000606082015260800190565b60208082526039908201527f506c6561736520617070726f76652074686520726571756972656420746f6b6560408201527f6e207472616e73666572206265666f7265206d696e74696e6700000000000000606082015260800190565b60208082526031908201527f4552433732313a207472616e736665722063616c6c6572206973206e6f74206f6040820152701ddb995c881b9bdc88185c1c1c9bdd9959607a1b606082015260800190565b6020808252602b908201527f4572726f723a206d7573742068617665204e465420746f20627579207370656360408201526a34b0b61030ba3a30b1b59760a91b606082015260800190565b600060208252825160a06020840152614c2e60c0840182613e03565b90506020840151601f19848303016040850152614c4b8282613e03565b9150506040840151606084015260608401516080840152608084015160a08401528091505092915050565b6000602082526131836020830184613f19565b90815260200190565b600087825260c06020830152614cab60c0830188613e03565b8281036040840152614cbd8188613e03565b60608401969096525050608081019290925260a0909101529392505050565b918252602082015260400190565b60405181810167ffffffffffffffff81118282101715614d0c57614d0c614e68565b604052919050565b600067ffffffffffffffff821115614d2e57614d2e614e68565b5060209081020190565b60009081526020902090565b60008219821115614d5757614d57614e3c565b500190565b600082614d6b57614d6b614e52565b500490565b6000816000190483118215151615614d8a57614d8a614e3c565b500290565b600082821015614da157614da1614e3c565b500390565b60005b83811015614dc1578181015183820152602001614da9565b838111156110ac5750506000910152565b600281046001821680614de657607f821691505b60208210811415614e0757634e487b7160e01b600052602260045260246000fd5b50919050565b6000600019821415614e2157614e21614e3c565b5060010190565b600082614e3757614e37614e52565b500690565b634e487b7160e01b600052601160045260246000fd5b634e487b7160e01b600052601260045260246000fd5b634e487b7160e01b600052604160045260246000fd5b80151581146127ef57600080fd5b6001600160e01b0319811681146127ef57600080fdfe506c617965722061747461636b656420626f73732e204e657720626f73732068703a2025734142434445464748494a4b4c4d4e4f505152535455565758595a6162636465666768696a6b6c6d6e6f707172737475767778797a303132333435363738392b2f426f73732061747461636b656420706c617965722e204e657720706c617965722068703a2025730a4d696e746564204e465420772f20746f6b656e496420257320616e6420636861726163746572496e646578202573a264697066735822122045d5ceb4d405adf7e4cebdea0ca3ba23ce438b7140432d6d6e85e41b108e046b64736f6c63430008000033446f6e6520696e697469616c697a696e6720257320772f2048502025732c20696d67202573446f6e6520696e697469616c697a696e6720626f737320257320772f2048502025732c20696d67202573",
  "linkReferences": {},
  "deployedLinkReferences": {}
}