{
  "_format": "hh-sol-artifact-1",
  "contractName": "NFTEpicGame",
  "sourceName": "contracts/NFTEpicGame.sol",
  "abi": [
    {
      "inputs": [
        {
          "internalType": "string[]",
          "name": "characterName",
          "type": "string[]"
        },
        {
          "internalType": "string[]",
          "name": "characterImageURI",
          "type": "string[]"
        },
        {
          "internalType": "uint256[]",
          "name": "characterMaxHp",
          "type": "uint256[]"
        },
        {
          "internalType": "uint256[][]",
          "name": "characterAttacks",
          "type": "uint256[][]"
        },
        {
          "internalType": "string",
          "name": "bossName",
          "type": "string"
        },
        {
          "internalType": "string",
          "name": "bossImageURI",
          "type": "string"
        },
        {
          "internalType": "uint256",
          "name": "bossHp",
          "type": "uint256"
        },
        {
          "internalType": "uint256",
          "name": "bossAttackDamage",
          "type": "uint256"
        },
        {
          "internalType": "address",
          "name": "epicTokenAddress",
          "type": "address"
        }
      ],
      "stateMutability": "nonpayable",
      "type": "constructor"
    },
    {
      "anonymous": false,
      "inputs": [
        {
          "indexed": true,
          "internalType": "address",
          "name": "owner",
          "type": "address"
        },
        {
          "indexed": true,
          "internalType": "address",
          "name": "approved",
          "type": "address"
        },
        {
          "indexed": true,
          "internalType": "uint256",
          "name": "tokenId",
          "type": "uint256"
        }
      ],
      "name": "Approval",
      "type": "event"
    },
    {
      "anonymous": false,
      "inputs": [
        {
          "indexed": true,
          "internalType": "address",
          "name": "owner",
          "type": "address"
        },
        {
          "indexed": true,
          "internalType": "address",
          "name": "operator",
          "type": "address"
        },
        {
          "indexed": false,
          "internalType": "bool",
          "name": "approved",
          "type": "bool"
        }
      ],
      "name": "ApprovalForAll",
      "type": "event"
    },
    {
      "anonymous": false,
      "inputs": [
        {
          "indexed": false,
          "internalType": "uint256",
          "name": "newBossHp",
          "type": "uint256"
        },
        {
          "indexed": false,
          "internalType": "uint256",
          "name": "newPlayerHp",
          "type": "uint256"
        }
      ],
      "name": "AttackComplete",
      "type": "event"
    },
    {
      "anonymous": false,
      "inputs": [
        {
          "indexed": false,
          "internalType": "address",
          "name": "sender",
          "type": "address"
        },
        {
          "indexed": false,
          "internalType": "uint256",
          "name": "tokenId",
          "type": "uint256"
        },
        {
          "indexed": false,
          "internalType": "uint256",
          "name": "characterIndex",
          "type": "uint256"
        }
      ],
      "name": "CharacterNFTMinted",
      "type": "event"
    },
    {
      "anonymous": false,
      "inputs": [
        {
          "indexed": true,
          "internalType": "address",
          "name": "previousOwner",
          "type": "address"
        },
        {
          "indexed": true,
          "internalType": "address",
          "name": "newOwner",
          "type": "address"
        }
      ],
      "name": "OwnershipTransferred",
      "type": "event"
    },
    {
      "anonymous": false,
      "inputs": [
        {
          "indexed": false,
          "internalType": "uint256",
          "name": "newHp",
          "type": "uint256"
        }
      ],
      "name": "RegenCompleted",
      "type": "event"
    },
    {
      "anonymous": false,
      "inputs": [
        {
          "indexed": true,
          "internalType": "address",
          "name": "from",
          "type": "address"
        },
        {
          "indexed": true,
          "internalType": "address",
          "name": "to",
          "type": "address"
        },
        {
          "indexed": true,
          "internalType": "uint256",
          "name": "tokenId",
          "type": "uint256"
        }
      ],
      "name": "Transfer",
      "type": "event"
    },
    {
      "inputs": [
        {
          "internalType": "string[]",
          "name": "attackNames",
          "type": "string[]"
        },
        {
          "internalType": "string[]",
          "name": "attackImages",
          "type": "string[]"
        },
        {
          "internalType": "uint256[]",
          "name": "attackDamages",
          "type": "uint256[]"
        },
        {
          "internalType": "uint256[]",
          "name": "attackIndexes",
          "type": "uint256[]"
        }
      ],
      "name": "addAttacks",
      "outputs": [],
      "stateMutability": "nonpayable",
      "type": "function"
    },
    {
      "inputs": [
        {
          "internalType": "string[]",
          "name": "specialAttackNames",
          "type": "string[]"
        },
        {
          "internalType": "string[]",
          "name": "specialAttackImages",
          "type": "string[]"
        },
        {
          "internalType": "uint256[]",
          "name": "specialAttackDamages",
          "type": "uint256[]"
        },
        {
          "internalType": "uint256[]",
          "name": "specialAttackPrices",
          "type": "uint256[]"
        },
        {
          "internalType": "uint256[]",
          "name": "specialAttackIndexes",
          "type": "uint256[]"
        }
      ],
      "name": "addSpecialAttacks",
      "outputs": [],
      "stateMutability": "nonpayable",
      "type": "function"
    },
    {
      "inputs": [
        {
          "internalType": "address",
          "name": "to",
          "type": "address"
        },
        {
          "internalType": "uint256",
          "name": "tokenId",
          "type": "uint256"
        }
      ],
      "name": "approve",
      "outputs": [],
      "stateMutability": "nonpayable",
      "type": "function"
    },
    {
      "inputs": [
        {
          "internalType": "uint256",
          "name": "attackIndex",
          "type": "uint256"
        }
      ],
      "name": "attackBoss",
      "outputs": [],
      "stateMutability": "nonpayable",
      "type": "function"
    },
    {
      "inputs": [
        {
          "internalType": "uint256",
          "name": "attackIndex",
          "type": "uint256"
        }
      ],
      "name": "attackSpecialBoss",
      "outputs": [],
      "stateMutability": "nonpayable",
      "type": "function"
    },
    {
      "inputs": [
        {
          "internalType": "address",
          "name": "owner",
          "type": "address"
        }
      ],
      "name": "balanceOf",
      "outputs": [
        {
          "internalType": "uint256",
          "name": "",
          "type": "uint256"
        }
      ],
      "stateMutability": "view",
      "type": "function"
    },
    {
      "inputs": [],
      "name": "bigBoss",
      "outputs": [
        {
          "internalType": "string",
          "name": "name",
          "type": "string"
        },
        {
          "internalType": "string",
          "name": "imageURI",
          "type": "string"
        },
        {
          "internalType": "uint256",
          "name": "hp",
          "type": "uint256"
        },
        {
          "internalType": "uint256",
          "name": "maxHp",
          "type": "uint256"
        },
        {
          "internalType": "uint256",
          "name": "attackDamage",
          "type": "uint256"
        }
      ],
      "stateMutability": "view",
      "type": "function"
    },
    {
      "inputs": [
        {
          "internalType": "uint256",
          "name": "specialAttackIndex",
          "type": "uint256"
        }
      ],
      "name": "buySpecialAttack",
      "outputs": [],
      "stateMutability": "payable",
      "type": "function"
    },
    {
      "inputs": [],
      "name": "checkIfUserHasNFT",
      "outputs": [
        {
          "components": [
            {
              "internalType": "uint256",
              "name": "characterIndex",
              "type": "uint256"
            },
            {
              "internalType": "string",
              "name": "name",
              "type": "string"
            },
            {
              "internalType": "string",
              "name": "imageURI",
              "type": "string"
            },
            {
              "internalType": "uint256",
              "name": "hp",
              "type": "uint256"
            },
            {
              "internalType": "uint256",
              "name": "maxHp",
              "type": "uint256"
            },
            {
              "internalType": "uint256[]",
              "name": "attacks",
              "type": "uint256[]"
            },
            {
              "internalType": "uint256[]",
              "name": "specialAttacks",
              "type": "uint256[]"
            },
            {
              "internalType": "uint256",
              "name": "lastRegenTime",
              "type": "uint256"
            },
            {
              "internalType": "uint256",
              "name": "tokenId",
              "type": "uint256"
            }
          ],
          "internalType": "struct NFTEpicGame.CharacterAttributes",
          "name": "",
          "type": "tuple"
        }
      ],
      "stateMutability": "view",
      "type": "function"
    },
    {
      "inputs": [],
      "name": "claimHealth",
      "outputs": [],
      "stateMutability": "nonpayable",
      "type": "function"
    },
    {
      "inputs": [],
      "name": "getAllAttacks",
      "outputs": [
        {
          "components": [
            {
              "internalType": "uint256",
              "name": "attackIndex",
              "type": "uint256"
            },
            {
              "internalType": "string",
              "name": "attackName",
              "type": "string"
            },
            {
              "internalType": "uint256",
              "name": "attackDamage",
              "type": "uint256"
            },
            {
              "internalType": "string",
              "name": "attackImage",
              "type": "string"
            }
          ],
          "internalType": "struct NFTEpicGame.AttackType[]",
          "name": "",
          "type": "tuple[]"
        }
      ],
      "stateMutability": "view",
      "type": "function"
    },
    {
      "inputs": [],
      "name": "getAllDefaultCharacters",
      "outputs": [
        {
          "components": [
            {
              "internalType": "uint256",
              "name": "characterIndex",
              "type": "uint256"
            },
            {
              "internalType": "string",
              "name": "name",
              "type": "string"
            },
            {
              "internalType": "string",
              "name": "imageURI",
              "type": "string"
            },
            {
              "internalType": "uint256",
              "name": "hp",
              "type": "uint256"
            },
            {
              "internalType": "uint256",
              "name": "maxHp",
              "type": "uint256"
            },
            {
              "internalType": "uint256[]",
              "name": "attacks",
              "type": "uint256[]"
            },
            {
              "internalType": "uint256[]",
              "name": "specialAttacks",
              "type": "uint256[]"
            },
            {
              "internalType": "uint256",
              "name": "lastRegenTime",
              "type": "uint256"
            },
            {
              "internalType": "uint256",
              "name": "tokenId",
              "type": "uint256"
            }
          ],
          "internalType": "struct NFTEpicGame.CharacterAttributes[]",
          "name": "",
          "type": "tuple[]"
        }
      ],
      "stateMutability": "view",
      "type": "function"
    },
    {
      "inputs": [],
      "name": "getAllSpecialAttacks",
      "outputs": [
        {
          "components": [
            {
              "internalType": "uint256",
              "name": "price",
              "type": "uint256"
            },
            {
              "internalType": "uint256",
              "name": "specialAttackIndex",
              "type": "uint256"
            },
            {
              "internalType": "string",
              "name": "specialAttackName",
              "type": "string"
            },
            {
              "internalType": "uint256",
              "name": "specialAttackDamage",
              "type": "uint256"
            },
            {
              "internalType": "string",
              "name": "specialAttackImage",
              "type": "string"
            }
          ],
          "internalType": "struct NFTEpicGame.SpecialAttackType[]",
          "name": "",
          "type": "tuple[]"
        }
      ],
      "stateMutability": "view",
      "type": "function"
    },
    {
      "inputs": [
        {
          "internalType": "uint256",
          "name": "tokenId",
          "type": "uint256"
        }
      ],
      "name": "getApproved",
      "outputs": [
        {
          "internalType": "address",
          "name": "",
          "type": "address"
        }
      ],
      "stateMutability": "view",
      "type": "function"
    },
    {
      "inputs": [],
      "name": "getBigBoss",
      "outputs": [
        {
          "components": [
            {
              "internalType": "string",
              "name": "name",
              "type": "string"
            },
            {
              "internalType": "string",
              "name": "imageURI",
              "type": "string"
            },
            {
              "internalType": "uint256",
              "name": "hp",
              "type": "uint256"
            },
            {
              "internalType": "uint256",
              "name": "maxHp",
              "type": "uint256"
            },
            {
              "internalType": "uint256",
              "name": "attackDamage",
              "type": "uint256"
            }
          ],
          "internalType": "struct NFTEpicGame.BigBoss",
          "name": "",
          "type": "tuple"
        }
      ],
      "stateMutability": "view",
      "type": "function"
    },
    {
      "inputs": [
        {
          "internalType": "address",
          "name": "owner",
          "type": "address"
        },
        {
          "internalType": "address",
          "name": "operator",
          "type": "address"
        }
      ],
      "name": "isApprovedForAll",
      "outputs": [
        {
          "internalType": "bool",
          "name": "",
          "type": "bool"
        }
      ],
      "stateMutability": "view",
      "type": "function"
    },
    {
      "inputs": [
        {
          "internalType": "uint256",
          "name": "_characterIndex",
          "type": "uint256"
        }
      ],
      "name": "mintCharacterNFT",
      "outputs": [],
      "stateMutability": "payable",
      "type": "function"
    },
    {
      "inputs": [],
      "name": "name",
      "outputs": [
        {
          "internalType": "string",
          "name": "",
          "type": "string"
        }
      ],
      "stateMutability": "view",
      "type": "function"
    },
    {
      "inputs": [
        {
          "internalType": "uint256",
          "name": "",
          "type": "uint256"
        }
      ],
      "name": "nftHolderAttributes",
      "outputs": [
        {
          "internalType": "uint256",
          "name": "characterIndex",
          "type": "uint256"
        },
        {
          "internalType": "string",
          "name": "name",
          "type": "string"
        },
        {
          "internalType": "string",
          "name": "imageURI",
          "type": "string"
        },
        {
          "internalType": "uint256",
          "name": "hp",
          "type": "uint256"
        },
        {
          "internalType": "uint256",
          "name": "maxHp",
          "type": "uint256"
        },
        {
          "internalType": "uint256",
          "name": "lastRegenTime",
          "type": "uint256"
        },
        {
          "internalType": "uint256",
          "name": "tokenId",
          "type": "uint256"
        }
      ],
      "stateMutability": "view",
      "type": "function"
    },
    {
      "inputs": [
        {
          "internalType": "address",
          "name": "",
          "type": "address"
        }
      ],
      "name": "nftHolders",
      "outputs": [
        {
          "internalType": "uint256",
          "name": "",
          "type": "uint256"
        }
      ],
      "stateMutability": "view",
      "type": "function"
    },
    {
      "inputs": [],
      "name": "owner",
      "outputs": [
        {
          "internalType": "address",
          "name": "",
          "type": "address"
        }
      ],
      "stateMutability": "view",
      "type": "function"
    },
    {
      "inputs": [
        {
          "internalType": "uint256",
          "name": "tokenId",
          "type": "uint256"
        }
      ],
      "name": "ownerOf",
      "outputs": [
        {
          "internalType": "address",
          "name": "",
          "type": "address"
        }
      ],
      "stateMutability": "view",
      "type": "function"
    },
    {
      "inputs": [],
      "name": "renounceOwnership",
      "outputs": [],
      "stateMutability": "nonpayable",
      "type": "function"
    },
    {
      "inputs": [
        {
          "internalType": "address",
          "name": "from",
          "type": "address"
        },
        {
          "internalType": "address",
          "name": "to",
          "type": "address"
        },
        {
          "internalType": "uint256",
          "name": "tokenId",
          "type": "uint256"
        }
      ],
      "name": "safeTransferFrom",
      "outputs": [],
      "stateMutability": "nonpayable",
      "type": "function"
    },
    {
      "inputs": [
        {
          "internalType": "address",
          "name": "from",
          "type": "address"
        },
        {
          "internalType": "address",
          "name": "to",
          "type": "address"
        },
        {
          "internalType": "uint256",
          "name": "tokenId",
          "type": "uint256"
        },
        {
          "internalType": "bytes",
          "name": "_data",
          "type": "bytes"
        }
      ],
      "name": "safeTransferFrom",
      "outputs": [],
      "stateMutability": "nonpayable",
      "type": "function"
    },
    {
      "inputs": [
        {
          "internalType": "address",
          "name": "operator",
          "type": "address"
        },
        {
          "internalType": "bool",
          "name": "approved",
          "type": "bool"
        }
      ],
      "name": "setApprovalForAll",
      "outputs": [],
      "stateMutability": "nonpayable",
      "type": "function"
    },
    {
      "inputs": [
        {
          "internalType": "bytes4",
          "name": "interfaceId",
          "type": "bytes4"
        }
      ],
      "name": "supportsInterface",
      "outputs": [
        {
          "internalType": "bool",
          "name": "",
          "type": "bool"
        }
      ],
      "stateMutability": "view",
      "type": "function"
    },
    {
      "inputs": [],
      "name": "symbol",
      "outputs": [
        {
          "internalType": "string",
          "name": "",
          "type": "string"
        }
      ],
      "stateMutability": "view",
      "type": "function"
    },
    {
      "inputs": [
        {
          "internalType": "uint256",
          "name": "_tokenId",
          "type": "uint256"
        }
      ],
      "name": "tokenURI",
      "outputs": [
        {
          "internalType": "string",
          "name": "",
          "type": "string"
        }
      ],
      "stateMutability": "view",
      "type": "function"
    },
    {
      "inputs": [
        {
          "internalType": "address",
          "name": "from",
          "type": "address"
        },
        {
          "internalType": "address",
          "name": "to",
          "type": "address"
        },
        {
          "internalType": "uint256",
          "name": "tokenId",
          "type": "uint256"
        }
      ],
      "name": "transferFrom",
      "outputs": [],
      "stateMutability": "nonpayable",
      "type": "function"
    },
    {
      "inputs": [
        {
          "internalType": "address",
          "name": "newOwner",
          "type": "address"
        }
      ],
      "name": "transferOwnership",
      "outputs": [],
      "stateMutability": "nonpayable",
      "type": "function"
    }
  ],
  "bytecode": "0x6080604052603c600a553480156200001657600080fd5b5060405162005e4f38038062005e4f833981016040819052620000399162000b52565b60408051808201825260068152654865726f657360d01b6020808301918252835180850190945260048452634845524f60e01b908401528151919291620000839160009162000866565b5080516200009990600190602084019062000866565b5050600160065550620000b5620000af6200078f565b62000793565b600980546001600160a01b0319166001600160a01b03831617905560005b89518110156200058f57620000e7620008f5565b8181528a518b90839081106200010d57634e487b7160e01b600052603260045260246000fd5b602002602001015181602001819052508982815181106200013e57634e487b7160e01b600052603260045260246000fd5b602002602001015181604001819052508882815181106200016f57634e487b7160e01b600052603260045260246000fd5b6020026020010151816060018181525050888281518110620001a157634e487b7160e01b600052603260045260246000fd5b6020026020010151816080018181525050878281518110620001d357634e487b7160e01b600052603260045260246000fd5b60209081029190910181015160a083015260128054600181018255600091909152825160099091027fbb8a6a4669ba250d26cd7a459eca9d215f8307e33aebe50379bc5a3617ec34448101918255838301518051859462000259937fbb8a6a4669ba250d26cd7a459eca9d215f8307e33aebe50379bc5a3617ec34450192019062000866565b50604082015180516200027791600284019160209091019062000866565b50606082015160038201556080820151600482015560a08201518051620002a991600584019160209091019062000941565b5060c08201518051620002c791600684019160209091019062000941565b5060e08201518160070155610100820151816008015550506000601283815481106200030357634e487b7160e01b600052603260045260246000fd5b90600052602060002090600902016040518061012001604052908160008201548152602001600182018054620003399062000d79565b80601f0160208091040260200160405190810160405280929190818152602001828054620003679062000d79565b8015620003b85780601f106200038c57610100808354040283529160200191620003b8565b820191906000526020600020905b8154815290600101906020018083116200039a57829003601f168201915b50505050508152602001600282018054620003d39062000d79565b80601f0160208091040260200160405190810160405280929190818152602001828054620004019062000d79565b8015620004525780601f10620004265761010080835404028352916020019162000452565b820191906000526020600020905b8154815290600101906020018083116200043457829003601f168201915b50505050508152602001600382015481526020016004820154815260200160058201805480602002602001604051908101604052809291908181526020018280548015620004c057602002820191906000526020600020905b815481526020019060010190808311620004ab575b50505050508152602001600682018054806020026020016040519081016040528092919081815260200182805480156200051a57602002820191906000526020600020905b81548152602001906001019080831162000505575b505050505081526020016007820154815260200160088201548152505090506200057760405180606001604052806025815260200162005e0060259139826020015183606001518460400151620007e560201b62002e931760201c565b50508080620005869062000db6565b915050620000d3565b50620005a760086200083c60201b62002edc1760201c565b6040805160a0810182528681526020808201879052918101859052606081018590526080810184905286519091600d91620005e8918391908a019062000866565b50602082810151805162000603926001850192019062000866565b50604082015181600201556060820151816003015560808201518160040155905050620007806040518060600160405280602a815260200162005e25602a9139600d8054620006529062000d79565b80601f0160208091040260200160405190810160405280929190818152602001828054620006809062000d79565b8015620006d15780601f10620006a557610100808354040283529160200191620006d1565b820191906000526020600020905b815481529060010190602001808311620006b357829003601f168201915b5050600f54600e80549194509250620006eb915062000d79565b80601f0160208091040260200160405190810160405280929190818152602001828054620007199062000d79565b80156200076a5780601f106200073e576101008083540402835291602001916200076a565b820191906000526020600020905b8154815290600101906020018083116200074c57829003601f168201915b5050505050620007e560201b62002e931760201c565b50505050505050505062000df4565b3390565b600780546001600160a01b038381166001600160a01b0319831681179093556040519116919082907f8be0079c531659141344cd1fd0a4f28419497f9722a3daafe3b4186f6b6457e090600090a35050565b620008368484848460405160240162000802949392919062000ca8565b60408051601f198184030181529190526020810180516001600160e01b03908116638d142cdd60e01b179091526200084516565b50505050565b80546001019055565b80516a636f6e736f6c652e6c6f67602083016000808483855afa5050505050565b828054620008749062000d79565b90600052602060002090601f016020900481019282620008985760008555620008e3565b82601f10620008b357805160ff1916838001178555620008e3565b82800160010185558215620008e3579182015b82811115620008e3578251825591602001919060010190620008c6565b50620008f19291506200097e565b5090565b6040518061012001604052806000815260200160608152602001606081526020016000815260200160008152602001606081526020016060815260200160008152602001600081525090565b828054828255906000526020600020908101928215620008e35791602002820182811115620008e3578251825591602001919060010190620008c6565b5b80821115620008f157600081556001016200097f565b80516001600160a01b0381168114620009ad57600080fd5b919050565b600082601f830112620009c3578081fd5b81516020620009dc620009d68362000d24565b62000cf8565b82815281810190858301855b8581101562000a155762000a02898684518b010162000a7f565b84529284019290840190600101620009e8565b5090979650505050505050565b600082601f83011262000a33578081fd5b8151602062000a46620009d68362000d24565b82815281810190858301855b8581101562000a155762000a6c898684518b010162000ae0565b8452928401929084019060010162000a52565b600082601f83011262000a90578081fd5b8151602062000aa3620009d68362000d24565b828152818101908583018385028701840188101562000ac0578586fd5b855b8581101562000a155781518452928401929084019060010162000ac2565b600082601f83011262000af1578081fd5b81516001600160401b0381111562000b0d5762000b0d62000dde565b62000b22601f8201601f191660200162000cf8565b81815284602083860101111562000b37578283fd5b62000b4a82602083016020870162000d4a565b949350505050565b60008060008060008060008060006101208a8c03121562000b71578485fd5b89516001600160401b038082111562000b88578687fd5b62000b968d838e0162000a22565b9a5060208c015191508082111562000bac578687fd5b62000bba8d838e0162000a22565b995060408c015191508082111562000bd0578687fd5b62000bde8d838e0162000a7f565b985060608c015191508082111562000bf4578687fd5b62000c028d838e01620009b2565b975060808c015191508082111562000c18578687fd5b62000c268d838e0162000ae0565b965060a08c015191508082111562000c3c578586fd5b5062000c4b8c828d0162000ae0565b94505060c08a0151925060e08a0151915062000c6b6101008b0162000995565b90509295985092959850929598565b6000815180845262000c9481602086016020860162000d4a565b601f01601f19169290920160200192915050565b60006080825262000cbd608083018762000c7a565b828103602084015262000cd1818762000c7a565b9050846040840152828103606084015262000ced818562000c7a565b979650505050505050565b6040518181016001600160401b038111828210171562000d1c5762000d1c62000dde565b604052919050565b60006001600160401b0382111562000d405762000d4062000dde565b5060209081020190565b60005b8381101562000d6757818101518382015260200162000d4d565b83811115620008365750506000910152565b60028104600182168062000d8e57607f821691505b6020821081141562000db057634e487b7160e01b600052602260045260246000fd5b50919050565b600060001982141562000dd757634e487b7160e01b81526011600452602481fd5b5060010190565b634e487b7160e01b600052604160045260246000fd5b614ffc8062000e046000396000f3fe6080604052600436106101d85760003560e01c8063715018a611610102578063a9c3267911610095578063c8cf27f411610064578063c8cf27f414610559578063e985e9c51461057b578063f2fde38b1461059b578063f8b81ef7146105bb576101d8565b8063a9c32679146104d1578063b88d4fde146104f7578063b953084e14610517578063c87b56dd14610539576101d8565b80638da5cb5b116100d15780638da5cb5b1461045457806395d89b411461046957806398da4c951461047e578063a22cb465146104b1576101d8565b8063715018a6146103ec57806377b1d1fc146104015780637df124a11461042157806386a02f8614610441576101d8565b806323b872dd1161017a578063468fb85c11610149578063468fb85c1461036857806355e71eae1461037d5780636352211e1461039f57806370a08231146103bf576101d8565b806323b872dd146102e65780632854485d14610306578063316afe631461032857806342842e0e14610348576101d8565b806306fdde03116101b657806306fdde0314610257578063081812fc14610279578063095ea7b3146102a657806314ce5139146102c6576101d8565b806301ffc9a7146101dd5780630619f932146102135780630665f96114610235575b600080fd5b3480156101e957600080fd5b506101fd6101f8366004613db8565b6105ce565b60405161020a91906144e1565b60405180910390f35b34801561021f57600080fd5b5061023361022e366004613df0565b610616565b005b34801561024157600080fd5b5061024a610813565b60405161020a9190614c73565b34801561026357600080fd5b5061026c610970565b60405161020a91906144ec565b34801561028557600080fd5b50610299610294366004613df0565b610a02565b60405161020a91906142a2565b3480156102b257600080fd5b506102336102c1366004613c0b565b610a45565b3480156102d257600080fd5b506102336102e1366004613cd0565b610add565b3480156102f257600080fd5b50610233610301366004613b21565b610cdc565b34801561031257600080fd5b5061031b610d14565b60405161020a9190614352565b34801561033457600080fd5b50610233610343366004613c34565b610eab565b34801561035457600080fd5b50610233610363366004613b21565b6110b3565b34801561037457600080fd5b506102336110ce565b34801561038957600080fd5b506103926115bb565b60405161020a919061444b565b3480156103ab57600080fd5b506102996103ba366004613df0565b611753565b3480156103cb57600080fd5b506103df6103da366004613ad5565b611788565b60405161020a9190614cea565b3480156103f857600080fd5b506102336117cc565b34801561040d57600080fd5b5061023361041c366004613df0565b611817565b34801561042d57600080fd5b506103df61043c366004613ad5565b611902565b61023361044f366004613df0565b611914565b34801561046057600080fd5b50610299611b40565b34801561047557600080fd5b5061026c611b4f565b34801561048a57600080fd5b5061049e610499366004613df0565b611b5e565b60405161020a9796959493929190614cf3565b3480156104bd57600080fd5b506102336104cc366004613bd5565b611ca9565b3480156104dd57600080fd5b506104e6611cbf565b60405161020a959493929190614549565b34801561050357600080fd5b50610233610512366004613b5c565b611df1565b34801561052357600080fd5b5061052c611e2a565b60405161020a91906143eb565b34801561054557600080fd5b5061026c610554366004613df0565b612087565b34801561056557600080fd5b5061056e61252d565b60405161020a9190614cd7565b34801561058757600080fd5b506101fd610596366004613aef565b61278d565b3480156105a757600080fd5b506102336105b6366004613ad5565b6127bb565b6102336105c9366004613df0565b61282c565b60006001600160e01b031982166380ac58cd60e01b14806105ff57506001600160e01b03198216635b5e139f60e01b145b8061060e575061060e82612ee5565b90505b919050565b336000908152601460209081526040808320548084526013909252909120600381015461065e5760405162461bcd60e51b815260040161065590614990565b60405180910390fd5b600f5461067d5760405162461bcd60e51b8152600401610655906146b5565b6000805b600583015481101561070a578260050181815481106106b057634e487b7160e01b600052603260045260246000fd5b90600052602060002001548514156106f857600b85815481106106e357634e487b7160e01b600052603260045260246000fd5b90600052602060002090600402016002015491505b8061070281614e76565b915050610681565b506000811161072b5760405162461bcd60e51b8152600401610655906147af565b600f5481111561073f576000600f55610751565b600f5461074d908290614df8565b600f555b6011546003830154101561076b5760006003830155610783565b601154600383015461077d9190614df8565b60038301555b6107a7604051806060016040528060258152602001614f0c60259139600f54612efe565b6107cd604051806060016040528060288152602001614f71602891398360030154612efe565b600f5460038301546040517f838ab28464562786a6c4ab2311964b82fa60bd9b14aa7e856af1f3f18d41a41492610805929091614d45565b60405180910390a150505050565b61081b613846565b600d6040518060a001604052908160008201805461083890614e3b565b80601f016020809104026020016040519081016040528092919081815260200182805461086490614e3b565b80156108b15780601f10610886576101008083540402835291602001916108b1565b820191906000526020600020905b81548152906001019060200180831161089457829003601f168201915b505050505081526020016001820180546108ca90614e3b565b80601f01602080910402602001604051908101604052809291908181526020018280546108f690614e3b565b80156109435780601f1061091857610100808354040283529160200191610943565b820191906000526020600020905b81548152906001019060200180831161092657829003601f168201915b50505050508152602001600282015481526020016003820154815260200160048201548152505090505b90565b60606000805461097f90614e3b565b80601f01602080910402602001604051908101604052809291908181526020018280546109ab90614e3b565b80156109f85780601f106109cd576101008083540402835291602001916109f8565b820191906000526020600020905b8154815290600101906020018083116109db57829003601f168201915b5050505050905090565b6000610a0d82612f43565b610a295760405162461bcd60e51b815260040161065590614a12565b506000908152600460205260409020546001600160a01b031690565b6000610a5082611753565b9050806001600160a01b0316836001600160a01b03161415610a845760405162461bcd60e51b815260040161065590614adc565b806001600160a01b0316610a96612f60565b6001600160a01b03161480610ab25750610ab281610596612f60565b610ace5760405162461bcd60e51b8152600401610655906148a0565b610ad88383612f64565b505050565b610ae5612f60565b6001600160a01b0316610af6611b40565b6001600160a01b031614610b1c5760405162461bcd60e51b815260040161065590614a5e565b60005b8151811015610c9657600c6040518060a00160405280858481518110610b5557634e487b7160e01b600052603260045260246000fd5b60200260200101518152602001848481518110610b8257634e487b7160e01b600052603260045260246000fd5b60200260200101518152602001888481518110610baf57634e487b7160e01b600052603260045260246000fd5b60200260200101518152602001868481518110610bdc57634e487b7160e01b600052603260045260246000fd5b60200260200101518152602001878481518110610c0957634e487b7160e01b600052603260045260246000fd5b6020908102919091018101519091528254600181810185556000948552938290208351600590920201908155828201519381019390935560408201518051929392610c5a9260028501920190613875565b506060820151600382015560808201518051610c80916004840191602090910190613875565b5050508080610c8e90614e76565b915050610b1f565b50610cd56040518060400160405280601f81526020017f446f6e6520616464696e6720616c6c207370656369616c2061747461636b7300815250612fd2565b5050505050565b610ced610ce7612f60565b82613015565b610d095760405162461bcd60e51b815260040161065590614bd7565b610ad883838361309a565b6060600b805480602002602001604051908101604052809291908181526020016000905b82821015610ea2578382906000526020600020906004020160405180608001604052908160008201548152602001600182018054610d7590614e3b565b80601f0160208091040260200160405190810160405280929190818152602001828054610da190614e3b565b8015610dee5780601f10610dc357610100808354040283529160200191610dee565b820191906000526020600020905b815481529060010190602001808311610dd157829003601f168201915b5050505050815260200160028201548152602001600382018054610e1190614e3b565b80601f0160208091040260200160405190810160405280929190818152602001828054610e3d90614e3b565b8015610e8a5780601f10610e5f57610100808354040283529160200191610e8a565b820191906000526020600020905b815481529060010190602001808311610e6d57829003601f168201915b50505050508152505081526020019060010190610d38565b50505050905090565b610eb3612f60565b6001600160a01b0316610ec4611b40565b6001600160a01b031614610eea5760405162461bcd60e51b815260040161065590614a5e565b610f2a6040518060400160405280601781526020017f61747461636b496e6465786573204c454e474854203b200000000000000000008152508251612efe565b60005b815181101561106e57600b6040518060800160405280848481518110610f6357634e487b7160e01b600052603260045260246000fd5b60200260200101518152602001878481518110610f9057634e487b7160e01b600052603260045260246000fd5b60200260200101518152602001858481518110610fbd57634e487b7160e01b600052603260045260246000fd5b60200260200101518152602001868481518110610fea57634e487b7160e01b600052603260045260246000fd5b60209081029190910181015190915282546001818101855560009485529382902083516004909202019081558282015180519394919361103293928501929190910190613875565b506040820151600282015560608201518051611058916003840191602090910190613875565b505050808061106690614e76565b915050610f2d565b506110ad6040518060400160405280601781526020017f446f6e6520616464696e6720616c6c2061747461636b73000000000000000000815250612fd2565b50505050565b610ad883838360405180602001604052806000815250611df1565b336000908152601460205260409020546110fa5760405162461bcd60e51b8152600401610655906145d3565b600954604051636eb1769f60e11b815267016345785d8a0000916001600160a01b03169063dd62ed3e9061113490339030906004016142b6565b60206040518083038186803b15801561114c57600080fd5b505afa158015611160573d6000803e3d6000fd5b505050506040513d601f19601f820116820180604052508101906111849190613e08565b10156111a25760405162461bcd60e51b815260040161065590614b7a565b6009546040516323b872dd60e01b81526001600160a01b03909116906323b872dd906111de903390309067016345785d8a0000906004016142d0565b602060405180830381600087803b1580156111f857600080fd5b505af115801561120c573d6000803e3d6000fd5b505050506040513d601f19601f820116820180604052508101906112309190613d9c565b503360009081526014602090815260408083205480845260138352818420825161012081019093528054835260018101805492959491929184019161127490614e3b565b80601f01602080910402602001604051908101604052809291908181526020018280546112a090614e3b565b80156112ed5780601f106112c2576101008083540402835291602001916112ed565b820191906000526020600020905b8154815290600101906020018083116112d057829003601f168201915b5050505050815260200160028201805461130690614e3b565b80601f016020809104026020016040519081016040528092919081815260200182805461133290614e3b565b801561137f5780601f106113545761010080835404028352916020019161137f565b820191906000526020600020905b81548152906001019060200180831161136257829003601f168201915b505050505081526020016003820154815260200160048201548152602001600582018054806020026020016040519081016040528092919081815260200182805480156113eb57602002820191906000526020600020905b8154815260200190600101908083116113d7575b505050505081526020016006820180548060200260200160405190810160405280929190818152602001828054801561144357602002820191906000526020600020905b81548152602001906001019080831161142f575b50505050508152602001600782015481526020016008820154815250509050600042905060008260e00151826114799190614df8565b9050600a548111156110ad57600061149c600a54836131c790919063ffffffff16565b84606001516114ab9190614dad565b905083608001518111156114c0575060808301515b6060840181905260e0840183905260008581526013602090815260409091208551815581860151805187936114fc926001850192910190613875565b5060408201518051611518916002840191602090910190613875565b50606082015160038201556080820151600482015560a082015180516115489160058401916020909101906138f5565b5060c082015180516115649160068401916020909101906138f5565b5060e0820151816007015561010082015181600801559050507f40e999d009372369c6c1be31b1caf3f8a088e89534cd3ded6fb3e56b33f2039c816040516115ac9190614cea565b60405180910390a15050505050565b6060600c805480602002602001604051908101604052809291908181526020016000905b82821015610ea257838290600052602060002090600502016040518060a0016040529081600082015481526020016001820154815260200160028201805461162690614e3b565b80601f016020809104026020016040519081016040528092919081815260200182805461165290614e3b565b801561169f5780601f106116745761010080835404028352916020019161169f565b820191906000526020600020905b81548152906001019060200180831161168257829003601f168201915b50505050508152602001600382015481526020016004820180546116c290614e3b565b80601f01602080910402602001604051908101604052809291908181526020018280546116ee90614e3b565b801561173b5780601f106117105761010080835404028352916020019161173b565b820191906000526020600020905b81548152906001019060200180831161171e57829003601f168201915b505050505081525050815260200190600101906115df565b6000818152600260205260408120546001600160a01b03168061060e5760405162461bcd60e51b815260040161065590614947565b60006001600160a01b0382166117b05760405162461bcd60e51b8152600401610655906148fd565b506001600160a01b031660009081526003602052604090205490565b6117d4612f60565b6001600160a01b03166117e5611b40565b6001600160a01b03161461180b5760405162461bcd60e51b815260040161065590614a5e565b61181560006131da565b565b33600090815260146020908152604080832054808452601390925290912060038101546118565760405162461bcd60e51b815260040161065590614990565b600f546118755760405162461bcd60e51b815260040161065590614869565b6000805b600683015481101561070a578260060181815481106118a857634e487b7160e01b600052603260045260246000fd5b90600052602060002001548514156118f057600c85815481106118db57634e487b7160e01b600052603260045260246000fd5b90600052602060002090600502016003015491505b806118fa81614e76565b915050611879565b60146020526000908152604090205481565b33600090815260146020526040902054806119415760405162461bcd60e51b815260040161065590614c28565b6000818152601360205260409020600c80548490811061197157634e487b7160e01b600052603260045260246000fd5b6000918252602090912060059091020154600954604051636eb1769f60e11b81526001600160a01b039091169063dd62ed3e906119b490339030906004016142b6565b60206040518083038186803b1580156119cc57600080fd5b505afa1580156119e0573d6000803e3d6000fd5b505050506040513d601f19601f82011682018060405250810190611a049190613e08565b1015611a225760405162461bcd60e51b815260040161065590614b1d565b600954600c80546001600160a01b03909216916323b872dd91339130919088908110611a5e57634e487b7160e01b600052603260045260246000fd5b9060005260206000209060050201600001546040518463ffffffff1660e01b8152600401611a8e939291906142d0565b602060405180830381600087803b158015611aa857600080fd5b505af1158015611abc573d6000803e3d6000fd5b505050506040513d601f19601f82011682018060405250810190611ae09190613d9c565b506006810180546001810182556000918252602090912001839055600f5460038201546040517f838ab28464562786a6c4ab2311964b82fa60bd9b14aa7e856af1f3f18d41a41492611b33929091614d45565b60405180910390a1505050565b6007546001600160a01b031690565b60606001805461097f90614e3b565b60136020526000908152604090208054600182018054919291611b8090614e3b565b80601f0160208091040260200160405190810160405280929190818152602001828054611bac90614e3b565b8015611bf95780601f10611bce57610100808354040283529160200191611bf9565b820191906000526020600020905b815481529060010190602001808311611bdc57829003601f168201915b505050505090806002018054611c0e90614e3b565b80601f0160208091040260200160405190810160405280929190818152602001828054611c3a90614e3b565b8015611c875780601f10611c5c57610100808354040283529160200191611c87565b820191906000526020600020905b815481529060010190602001808311611c6a57829003601f168201915b5050505050908060030154908060040154908060070154908060080154905087565b611cbb611cb4612f60565b838361322c565b5050565b600d80548190611cce90614e3b565b80601f0160208091040260200160405190810160405280929190818152602001828054611cfa90614e3b565b8015611d475780601f10611d1c57610100808354040283529160200191611d47565b820191906000526020600020905b815481529060010190602001808311611d2a57829003601f168201915b505050505090806001018054611d5c90614e3b565b80601f0160208091040260200160405190810160405280929190818152602001828054611d8890614e3b565b8015611dd55780601f10611daa57610100808354040283529160200191611dd5565b820191906000526020600020905b815481529060010190602001808311611db857829003601f168201915b5050505050908060020154908060030154908060040154905085565b611e02611dfc612f60565b83613015565b611e1e5760405162461bcd60e51b815260040161065590614bd7565b6110ad848484846132cf565b60606012805480602002602001604051908101604052809291908181526020016000905b82821015610ea257838290600052602060002090600902016040518061012001604052908160008201548152602001600182018054611e8c90614e3b565b80601f0160208091040260200160405190810160405280929190818152602001828054611eb890614e3b565b8015611f055780601f10611eda57610100808354040283529160200191611f05565b820191906000526020600020905b815481529060010190602001808311611ee857829003601f168201915b50505050508152602001600282018054611f1e90614e3b565b80601f0160208091040260200160405190810160405280929190818152602001828054611f4a90614e3b565b8015611f975780601f10611f6c57610100808354040283529160200191611f97565b820191906000526020600020905b815481529060010190602001808311611f7a57829003601f168201915b5050505050815260200160038201548152602001600482015481526020016005820180548060200260200160405190810160405280929190818152602001828054801561200357602002820191906000526020600020905b815481526020019060010190808311611fef575b505050505081526020016006820180548060200260200160405190810160405280929190818152602001828054801561205b57602002820191906000526020600020905b815481526020019060010190808311612047575b505050505081526020016007820154815260200160088201548152505081526020019060010190611e4e565b6000818152601360209081526040808320815161012081019092528054825260018101805460609594840191906120bd90614e3b565b80601f01602080910402602001604051908101604052809291908181526020018280546120e990614e3b565b80156121365780601f1061210b57610100808354040283529160200191612136565b820191906000526020600020905b81548152906001019060200180831161211957829003601f168201915b5050505050815260200160028201805461214f90614e3b565b80601f016020809104026020016040519081016040528092919081815260200182805461217b90614e3b565b80156121c85780601f1061219d576101008083540402835291602001916121c8565b820191906000526020600020905b8154815290600101906020018083116121ab57829003601f168201915b5050505050815260200160038201548152602001600482015481526020016005820180548060200260200160405190810160405280929190818152602001828054801561223457602002820191906000526020600020905b815481526020019060010190808311612220575b505050505081526020016006820180548060200260200160405190810160405280929190818152602001828054801561228c57602002820191906000526020600020905b815481526020019060010190808311612278575b5050505050815260200160078201548152602001600882015481525050905060006122ba8260600151613302565b905060006122cb8360800151613302565b60408051602080820183526000808352835191820190935282815292935091905b8560c00151518110156123ce5760008660c00151828151811061231f57634e487b7160e01b600052603260045260246000fd5b6020026020010151905083600c828154811061234b57634e487b7160e01b600052603260045260246000fd5b9060005260206000209060050201600201612397600c848154811061238057634e487b7160e01b600052603260045260246000fd5b906000526020600020906005020160030154613302565b6040516020016123a993929190614091565b60405160208183030381529060405293505080806123c690614e76565b9150506122ec565b5060005b8560a00151518110156124b45760008660a00151828151811061240557634e487b7160e01b600052603260045260246000fd5b6020026020010151905082600b828154811061243157634e487b7160e01b600052603260045260246000fd5b906000526020600020906004020160010161247d600b848154811061246657634e487b7160e01b600052603260045260246000fd5b906000526020600020906004020160020154613302565b60405160200161248f93929190614013565b60405160208183030381529060405292505080806124ac90614e76565b9150506123d2565b5060006124fb86602001516124c88a613302565b8860400151888888886040516020016124e797969594939291906140e3565b60405160208183030381529060405261341d565b9050600081604051602001612510919061425d565b60408051808303601f190181529190529998505050505050505050565b61253561392f565b3360009081526014602052604090205480156127785760136000828152602001908152602001600020604051806101200160405290816000820154815260200160018201805461258490614e3b565b80601f01602080910402602001604051908101604052809291908181526020018280546125b090614e3b565b80156125fd5780601f106125d2576101008083540402835291602001916125fd565b820191906000526020600020905b8154815290600101906020018083116125e057829003601f168201915b5050505050815260200160028201805461261690614e3b565b80601f016020809104026020016040519081016040528092919081815260200182805461264290614e3b565b801561268f5780601f106126645761010080835404028352916020019161268f565b820191906000526020600020905b81548152906001019060200180831161267257829003601f168201915b505050505081526020016003820154815260200160048201548152602001600582018054806020026020016040519081016040528092919081815260200182805480156126fb57602002820191906000526020600020905b8154815260200190600101908083116126e7575b505050505081526020016006820180548060200260200160405190810160405280929190818152602001828054801561275357602002820191906000526020600020905b81548152602001906001019080831161273f575b505050505081526020016007820154815260200160088201548152505091505061096d565b61278061392f565b915061096d9050565b5090565b6001600160a01b03918216600090815260056020908152604080832093909416825291909152205460ff1690565b6127c3612f60565b6001600160a01b03166127d4611b40565b6001600160a01b0316146127fa5760405162461bcd60e51b815260040161065590614a5e565b6001600160a01b0381166128205760405162461bcd60e51b81526004016106559061466f565b612829816131da565b50565b601254811061284d5760405162461bcd60e51b815260040161065590614832565b600954604051636eb1769f60e11b8152678ac7230489e80000916001600160a01b03169063dd62ed3e9061288790339030906004016142b6565b60206040518083038186803b15801561289f57600080fd5b505afa1580156128b3573d6000803e3d6000fd5b505050506040513d601f19601f820116820180604052508101906128d79190613e08565b10156128f55760405162461bcd60e51b815260040161065590614b7a565b6009546040516323b872dd60e01b81526001600160a01b03909116906323b872dd906129319033903090678ac7230489e80000906004016142d0565b602060405180830381600087803b15801561294b57600080fd5b505af115801561295f573d6000803e3d6000fd5b505050506040513d601f19601f820116820180604052508101906129839190613d9c565b5060006129906008613591565b905061299c3382613595565b604051806101200160405280838152602001601284815481106129cf57634e487b7160e01b600052603260045260246000fd5b906000526020600020906009020160010180546129eb90614e3b565b80601f0160208091040260200160405190810160405280929190818152602001828054612a1790614e3b565b8015612a645780601f10612a3957610100808354040283529160200191612a64565b820191906000526020600020905b815481529060010190602001808311612a4757829003601f168201915b5050505050815260200160128481548110612a8f57634e487b7160e01b600052603260045260246000fd5b90600052602060002090600902016002018054612aab90614e3b565b80601f0160208091040260200160405190810160405280929190818152602001828054612ad790614e3b565b8015612b245780601f10612af957610100808354040283529160200191612b24565b820191906000526020600020905b815481529060010190602001808311612b0757829003601f168201915b5050505050815260200160128481548110612b4f57634e487b7160e01b600052603260045260246000fd5b906000526020600020906009020160030154815260200160128481548110612b8757634e487b7160e01b600052603260045260246000fd5b906000526020600020906009020160040154815260200160128481548110612bbf57634e487b7160e01b600052603260045260246000fd5b9060005260206000209060090201600501805480602002602001604051908101604052809291908181526020018280548015612c1a57602002820191906000526020600020905b815481526020019060010190808311612c06575b5050505050815260200160128481548110612c4557634e487b7160e01b600052603260045260246000fd5b9060005260206000209060090201600601805480602002602001604051908101604052809291908181526020018280548015612ca057602002820191906000526020600020905b815481526020019060010190808311612c8c575b505050918352505042602080830191909152604091820184905260008481526013825291909120825181558282015180519192612ce592600185019290910190613875565b5060408201518051612d01916002840191602090910190613875565b50606082015160038201556080820151600482015560a08201518051612d319160058401916020909101906138f5565b5060c08201518051612d4d9160068401916020909101906138f5565b5060e082015181600701556101008201518160080155905050612d896040518060600160405280602e8152602001614f99602e913982846135af565b336000908152601460205260409020819055612da56008612edc565b6040805180820182526013815272021b7b73a3930b1ba103130b630b731b2901d1606d1b602082015260095491516370a0823160e01b8152612e54926001600160a01b0316906370a0823190612dff9030906004016142a2565b60206040518083038186803b158015612e1757600080fd5b505afa158015612e2b573d6000803e3d6000fd5b505050506040513d601f19601f82011682018060405250810190612e4f9190613e08565b612efe565b7f4bc303fd457a97b4691b9af582ce71868a3d258638c8d4f8c60988a0f0bfb8cd338284604051612e8793929190614331565b60405180910390a15050565b6110ad84848484604051602401612ead94939291906144ff565b60408051601f198184030181529190526020810180516001600160e01b0316638d142cdd60e01b1790526135f2565b80546001019055565b6001600160e01b031981166301ffc9a760e01b14919050565b611cbb8282604051602401612f1492919061458c565b60408051601f198184030181529190526020810180516001600160e01b03166309710a9d60e41b1790526135f2565b6000908152600260205260409020546001600160a01b0316151590565b3390565b600081815260046020526040902080546001600160a01b0319166001600160a01b0384169081179091558190612f9982611753565b6001600160a01b03167f8c5be1e5ebec7d5bd14f71427d1e84f3dd0314c0f7b2291e5b200ac8c7c3b92560405160405180910390a45050565b61282981604051602401612fe691906144ec565b60408051601f198184030181529190526020810180516001600160e01b031663104c13eb60e21b1790526135f2565b600061302082612f43565b61303c5760405162461bcd60e51b8152600401610655906147e6565b600061304783611753565b9050806001600160a01b0316846001600160a01b031614806130825750836001600160a01b031661307784610a02565b6001600160a01b0316145b806130925750613092818561278d565b949350505050565b826001600160a01b03166130ad82611753565b6001600160a01b0316146130d35760405162461bcd60e51b815260040161065590614a93565b6001600160a01b0382166130f95760405162461bcd60e51b815260040161065590614734565b613104838383610ad8565b61310f600082612f64565b6001600160a01b0383166000908152600360205260408120805460019290613138908490614df8565b90915550506001600160a01b0382166000908152600360205260408120805460019290613166908490614dad565b909155505060008181526002602052604080822080546001600160a01b0319166001600160a01b0386811691821790925591518493918716917fddf252ad1be2c89b69c2b068fc378daa952ba7f163c4a11628f55a4df523b3ef91a4505050565b60006131d38284614dc5565b9392505050565b600780546001600160a01b038381166001600160a01b0319831681179093556040519116919082907f8be0079c531659141344cd1fd0a4f28419497f9722a3daafe3b4186f6b6457e090600090a35050565b816001600160a01b0316836001600160a01b0316141561325e5760405162461bcd60e51b815260040161065590614778565b6001600160a01b0383811660008181526005602090815260408083209487168084529490915290819020805460ff1916851515179055517f17307eab39ab6107e8899845ad3d59bd9653f200f220920489ca2b5937696c31906132c29085906144e1565b60405180910390a3505050565b6132da84848461309a565b6132e684848484613613565b6110ad5760405162461bcd60e51b81526004016106559061461d565b60608161332757506040805180820190915260018152600360fc1b6020820152610611565b8160005b8115613351578061333b81614e76565b915061334a9050600a83614dc5565b915061332b565b60008167ffffffffffffffff81111561337a57634e487b7160e01b600052604160045260246000fd5b6040519080825280601f01601f1916602001820160405280156133a4576020820181803683370190505b5090505b8415613092576133b9600183614df8565b91506133c6600a86614e91565b6133d1906030614dad565b60f81b8183815181106133f457634e487b7160e01b600052603260045260246000fd5b60200101906001600160f81b031916908160001a905350613416600a86614dc5565b94506133a8565b80516060908061343d575050604080516020810190915260008152610611565b6000600361344c836002614dad565b6134569190614dc5565b613461906004614dd9565b90506000613470826020614dad565b67ffffffffffffffff81111561349657634e487b7160e01b600052604160045260246000fd5b6040519080825280601f01601f1916602001820160405280156134c0576020820181803683370190505b5090506000604051806060016040528060408152602001614f31604091399050600181016020830160005b8681101561354c576003818a01810151603f601282901c8116860151600c83901c8216870151600684901c831688015192909316870151600891821b60ff94851601821b92841692909201901b91160160e01b8352600490920191016134eb565b506003860660018114613566576002811461357757613583565b613d3d60f01b600119830152613583565b603d60f81b6000198301525b505050918152949350505050565b5490565b611cbb82826040518060200160405280600081525061372e565b610ad88383836040516024016135c7939291906145ae565b60408051601f198184030181529190526020810180516001600160e01b031663969cdd0360e01b1790525b80516a636f6e736f6c652e6c6f67602083016000808483855afa5050505050565b6000613627846001600160a01b0316613761565b1561372357836001600160a01b031663150b7a02613643612f60565b8786866040518563ffffffff1660e01b815260040161366594939291906142f4565b602060405180830381600087803b15801561367f57600080fd5b505af19250505080156136af575060408051601f3d908101601f191682019092526136ac91810190613dd4565b60015b613709573d8080156136dd576040519150601f19603f3d011682016040523d82523d6000602084013e6136e2565b606091505b5080516137015760405162461bcd60e51b81526004016106559061461d565b805181602001fd5b6001600160e01b031916630a85bd0160e11b149050613092565b506001949350505050565b6137388383613767565b6137456000848484613613565b610ad85760405162461bcd60e51b81526004016106559061461d565b3b151590565b6001600160a01b03821661378d5760405162461bcd60e51b8152600401610655906149dd565b61379681612f43565b156137b35760405162461bcd60e51b8152600401610655906146fd565b6137bf60008383610ad8565b6001600160a01b03821660009081526003602052604081208054600192906137e8908490614dad565b909155505060008181526002602052604080822080546001600160a01b0319166001600160a01b03861690811790915590518392907fddf252ad1be2c89b69c2b068fc378daa952ba7f163c4a11628f55a4df523b3ef908290a45050565b6040518060a0016040528060608152602001606081526020016000815260200160008152602001600081525090565b82805461388190614e3b565b90600052602060002090601f0160209004810192826138a357600085556138e9565b82601f106138bc57805160ff19168380011785556138e9565b828001600101855582156138e9579182015b828111156138e95782518255916020019190600101906138ce565b5061278992915061397b565b8280548282559060005260206000209081019282156138e957916020028201828111156138e95782518255916020019190600101906138ce565b6040518061012001604052806000815260200160608152602001606081526020016000815260200160008152602001606081526020016060815260200160008152602001600081525090565b5b80821115612789576000815560010161397c565b600067ffffffffffffffff8311156139aa576139aa614ed1565b6139bd601f8401601f1916602001614d53565b90508281528383830111156139d157600080fd5b828260208301376000602084830101529392505050565b80356001600160a01b038116811461061157600080fd5b600082601f830112613a0f578081fd5b81356020613a24613a1f83614d7d565b614d53565b82815281810190858301855b85811015613a6e578135880189603f820112613a4a578788fd5b613a5b8a8783013560408401613990565b8552509284019290840190600101613a30565b5090979650505050505050565b600082601f830112613a8b578081fd5b81356020613a9b613a1f83614d7d565b8281528181019085830183850287018401881015613ab7578586fd5b855b85811015613a6e57813584529284019290840190600101613ab9565b600060208284031215613ae6578081fd5b6131d3826139e8565b60008060408385031215613b01578081fd5b613b0a836139e8565b9150613b18602084016139e8565b90509250929050565b600080600060608486031215613b35578081fd5b613b3e846139e8565b9250613b4c602085016139e8565b9150604084013590509250925092565b60008060008060808587031215613b71578081fd5b613b7a856139e8565b9350613b88602086016139e8565b925060408501359150606085013567ffffffffffffffff811115613baa578182fd5b8501601f81018713613bba578182fd5b613bc987823560208401613990565b91505092959194509250565b60008060408385031215613be7578182fd5b613bf0836139e8565b91506020830135613c0081614ee7565b809150509250929050565b60008060408385031215613c1d578182fd5b613c26836139e8565b946020939093013593505050565b60008060008060808587031215613c49578384fd5b843567ffffffffffffffff80821115613c60578586fd5b613c6c888389016139ff565b95506020870135915080821115613c81578485fd5b613c8d888389016139ff565b94506040870135915080821115613ca2578384fd5b613cae88838901613a7b565b93506060870135915080821115613cc3578283fd5b50613bc987828801613a7b565b600080600080600060a08688031215613ce7578283fd5b853567ffffffffffffffff80821115613cfe578485fd5b613d0a89838a016139ff565b96506020880135915080821115613d1f578485fd5b613d2b89838a016139ff565b95506040880135915080821115613d40578485fd5b613d4c89838a01613a7b565b94506060880135915080821115613d61578283fd5b613d6d89838a01613a7b565b93506080880135915080821115613d82578283fd5b50613d8f88828901613a7b565b9150509295509295909350565b600060208284031215613dad578081fd5b81516131d381614ee7565b600060208284031215613dc9578081fd5b81356131d381614ef5565b600060208284031215613de5578081fd5b81516131d381614ef5565b600060208284031215613e01578081fd5b5035919050565b600060208284031215613e19578081fd5b5051919050565b6000815180845260208085019450808401835b83811015613e4f57815187529582019590820190600101613e33565b509495945050505050565b60008151808452613e72816020860160208601614e0f565b601f01601f19169290920160200192915050565b60008151613e98818560208601614e0f565b9290920192915050565b805460009060028104600180831680613ebc57607f831692505b6020808410821415613edc57634e487b7160e01b86526022600452602486fd5b818015613ef05760018114613f0157613f2e565b60ff19861689528489019650613f2e565b613f0a88614da1565b60005b86811015613f265781548b820152908501908301613f0d565b505084890196505b50505050505092915050565b6e016101136b0bc2fbb30b63ab2911d1608d1b8152600f0190565b607d60f81b815260010190565b615d7d60f01b815260020190565b6000610120825184526020830151816020860152613f9082860182613e5a565b91505060408301518482036040860152613faa8282613e5a565b915050606083015160608501526080830151608085015260a083015184820360a0860152613fd88282613e20565b91505060c083015184820360c0860152613ff28282613e20565b60e08581015190870152610100948501519490950193909352509192915050565b60008451614025818460208901614e0f565b7116103d913a3930b4ba2fba3cb832911d101160711b90830190815261404e6012820186613ea2565b6b0111610113b30b63ab2911d160a51b8152845190915061407681600c840160208801614e0f565b607d60f81b600c9290910191820152600d0195945050505050565b600084516140a3818460208901614e0f565b7f2c207b2274726169745f74797065223a20225370656369616c2041747461636b9083019081526201016960ed1b602082015261404e6023820186613ea2565b693d913730b6b2911d101160b11b8152875160009061410981600a850160208d01614e0f565b6a01016969027232a10119d160ad1b600a918401918201528851614134816015840160208d01614e0f565b7f222c20226465736372697074696f6e223a20225468697320697320616e204e46601592909101918201527f542074686174206c6574732070656f706c6520706c617920696e20746865204560358201527f706963204e46542047616d6521222c2022696d616765223a2022000000000000605582015287516141be81606f840160208c01614e0f565b7f222c202261747472696275746573223a205b7b2274726169745f74797065223a606f92909101918201527f20224865616c746820506f696e7473222c202276616c7565223a200000000000608f82015261424f61424a61424461423e61423961423361422e60aa88018e613e86565b613f3a565b8b613e86565b613f55565b88613e86565b86613e86565b613f62565b9a9950505050505050505050565b60007f646174613a6170706c69636174696f6e2f6a736f6e3b6261736536342c0000008252825161429581601d850160208701614e0f565b91909101601d0192915050565b6001600160a01b0391909116815260200190565b6001600160a01b0392831681529116602082015260400190565b6001600160a01b039384168152919092166020820152604081019190915260600190565b6001600160a01b038581168252841660208201526040810183905260806060820181905260009061432790830184613e5a565b9695505050505050565b6001600160a01b039390931683526020830191909152604082015260600190565b60208082528251828201819052600091906040908185019080840286018301878501865b838110156143dd57603f19898403018552815160808151855288820151818a8701526143a482870182613e5a565b9150508782015188860152606080830151925085820381870152506143c98183613e5a565b968901969450505090860190600101614376565b509098975050505050505050565b6000602080830181845280855180835260408601915060408482028701019250838701855b8281101561443e57603f1988860301845261442c858351613f70565b94509285019290850190600101614410565b5092979650505050505050565b60208082528251828201819052600091906040908185019080840286018301878501865b838110156143dd57603f19898403018552815160a08151855288820151898601528782015181898701526144a582870182613e5a565b9150506060808301518187015250608080830151925085820381870152506144cd8183613e5a565b96890196945050509086019060010161446f565b901515815260200190565b6000602082526131d36020830184613e5a565b6000608082526145126080830187613e5a565b82810360208401526145248187613e5a565b9050846040840152828103606084015261453e8185613e5a565b979650505050505050565b600060a0825261455c60a0830188613e5a565b828103602084015261456e8188613e5a565b60408401969096525050606081019290925260809091015292915050565b60006040825261459f6040830185613e5a565b90508260208301529392505050565b6000606082526145c16060830186613e5a565b60208301949094525060400152919050565b6020808252602a908201527f596f7520646f6e2774206861766520612063686172616374657220746f20636c6040820152690c2d2da40d0cac2d8e8d60b31b606082015260800190565b60208082526032908201527f4552433732313a207472616e7366657220746f206e6f6e20455243373231526560408201527131b2b4bb32b91034b6b83632b6b2b73a32b960711b606082015260800190565b60208082526026908201527f4f776e61626c653a206e6577206f776e657220697320746865207a65726f206160408201526564647265737360d01b606082015260800190565b60208082526028908201527f4572726f723a20626f7373206d757374206861766520485020746f206174746160408201526731b5903137b9b99760c11b606082015260800190565b6020808252601c908201527f4552433732313a20746f6b656e20616c7265616479206d696e74656400000000604082015260600190565b60208082526024908201527f4552433732313a207472616e7366657220746f20746865207a65726f206164646040820152637265737360e01b606082015260800190565b60208082526019908201527f4552433732313a20617070726f766520746f2063616c6c657200000000000000604082015260600190565b6020808252601f908201527f4572726f723a2061747461636b206d75737420686176652064616d6167652e00604082015260600190565b6020808252602c908201527f4552433732313a206f70657261746f7220717565727920666f72206e6f6e657860408201526b34b9ba32b73a103a37b5b2b760a11b606082015260800190565b6020808252601d908201527f43686172616374657220696e646578206f7574206f6620626f756e6473000000604082015260600190565b60208082526019908201527f4572726f723a20626f7373206d75737420686176652048502e00000000000000604082015260600190565b60208082526038908201527f4552433732313a20617070726f76652063616c6c6572206973206e6f74206f7760408201527f6e6572206e6f7220617070726f76656420666f7220616c6c0000000000000000606082015260800190565b6020808252602a908201527f4552433732313a2062616c616e636520717565727920666f7220746865207a65604082015269726f206164647265737360b01b606082015260800190565b60208082526029908201527f4552433732313a206f776e657220717565727920666f72206e6f6e657869737460408201526832b73a103a37b5b2b760b91b606082015260800190565b6020808252602d908201527f4572726f723a20636861726163746572206d757374206861766520485020746f60408201526c1030ba3a30b1b5903137b9b99760991b606082015260800190565b6020808252818101527f4552433732313a206d696e7420746f20746865207a65726f2061646472657373604082015260600190565b6020808252602c908201527f4552433732313a20617070726f76656420717565727920666f72206e6f6e657860408201526b34b9ba32b73a103a37b5b2b760a11b606082015260800190565b6020808252818101527f4f776e61626c653a2063616c6c6572206973206e6f7420746865206f776e6572604082015260600190565b60208082526029908201527f4552433732313a207472616e73666572206f6620746f6b656e2074686174206960408201526839903737ba1037bbb760b91b606082015260800190565b60208082526021908201527f4552433732313a20617070726f76616c20746f2063757272656e74206f776e656040820152603960f91b606082015260800190565b6020808252603c908201527f4572726f723a2075736572206d7573742070726f7669646520656e6f7567682060408201527f746f6b656e20746f20627579207370656369616c2061747461636b2e00000000606082015260800190565b60208082526039908201527f506c6561736520617070726f76652074686520726571756972656420746f6b6560408201527f6e207472616e73666572206265666f7265206d696e74696e6700000000000000606082015260800190565b60208082526031908201527f4552433732313a207472616e736665722063616c6c6572206973206e6f74206f6040820152701ddb995c881b9bdc88185c1c1c9bdd9959607a1b606082015260800190565b6020808252602b908201527f4572726f723a206d7573742068617665204e465420746f20627579207370656360408201526a34b0b61030ba3a30b1b59760a91b606082015260800190565b600060208252825160a06020840152614c8f60c0840182613e5a565b90506020840151601f19848303016040850152614cac8282613e5a565b9150506040840151606084015260608401516080840152608084015160a08401528091505092915050565b6000602082526131d36020830184613f70565b90815260200190565b600088825260e06020830152614d0c60e0830189613e5a565b8281036040840152614d1e8189613e5a565b9150508560608301528460808301528360a08301528260c083015298975050505050505050565b918252602082015260400190565b60405181810167ffffffffffffffff81118282101715614d7557614d75614ed1565b604052919050565b600067ffffffffffffffff821115614d9757614d97614ed1565b5060209081020190565b60009081526020902090565b60008219821115614dc057614dc0614ea5565b500190565b600082614dd457614dd4614ebb565b500490565b6000816000190483118215151615614df357614df3614ea5565b500290565b600082821015614e0a57614e0a614ea5565b500390565b60005b83811015614e2a578181015183820152602001614e12565b838111156110ad5750506000910152565b600281046001821680614e4f57607f821691505b60208210811415614e7057634e487b7160e01b600052602260045260246000fd5b50919050565b6000600019821415614e8a57614e8a614ea5565b5060010190565b600082614ea057614ea0614ebb565b500690565b634e487b7160e01b600052601160045260246000fd5b634e487b7160e01b600052601260045260246000fd5b634e487b7160e01b600052604160045260246000fd5b801515811461282957600080fd5b6001600160e01b03198116811461282957600080fdfe506c617965722061747461636b656420626f73732e204e657720626f73732068703a2025734142434445464748494a4b4c4d4e4f505152535455565758595a6162636465666768696a6b6c6d6e6f707172737475767778797a303132333435363738392b2f426f73732061747461636b656420706c617965722e204e657720706c617965722068703a2025730a4d696e746564204e465420772f20746f6b656e496420257320616e6420636861726163746572496e646578202573a26469706673582212208fe63ec9e5912c40ba37926b3cea4ca7a04231cc5e38414105b0f8defea32dfb64736f6c63430008000033446f6e6520696e697469616c697a696e6720257320772f2048502025732c20696d67202573446f6e6520696e697469616c697a696e6720626f737320257320772f2048502025732c20696d67202573",
  "linkReferences": {},
  "deployedLinkReferences": {}
}